{"contracts/ManagementContract_Base.sol":{"ManagementContract_Base":{"abi":[{"inputs":[],"stateMutability":"nonpayable","type":"constructor"},{"inputs":[{"internalType":"address","name":"owner","type":"address"}],"name":"OwnableInvalidOwner","type":"error"},{"inputs":[{"internalType":"address","name":"account","type":"address"}],"name":"OwnableUnauthorizedAccount","type":"error"},{"anonymous":false,"inputs":[{"indexed":true,"internalType":"address","name":"previousOwner","type":"address"},{"indexed":true,"internalType":"address","name":"newOwner","type":"address"}],"name":"OwnershipTransferred","type":"event"},{"anonymous":false,"inputs":[{"indexed":true,"internalType":"address","name":"voterAddress","type":"address"},{"indexed":false,"internalType":"uint256","name":"voterId","type":"uint256"}],"name":"Registered","type":"event"},{"anonymous":false,"inputs":[{"indexed":false,"internalType":"uint256","name":"totalVoters","type":"uint256"}],"name":"RegistrationClosed","type":"event"},{"anonymous":false,"inputs":[{"indexed":true,"internalType":"address","name":"authorizedAddress","type":"address"}],"name":"ResultViewerGranted","type":"event"},{"inputs":[],"name":"closeRegistration","outputs":[],"stateMutability":"nonpayable","type":"function"},{"inputs":[],"name":"getRegisteredVotersCount","outputs":[{"internalType":"uint256","name":"","type":"uint256"}],"stateMutability":"view","type":"function"},{"inputs":[{"internalType":"address","name":"auth","type":"address"}],"name":"grantResultViewer","outputs":[],"stateMutability":"nonpayable","type":"function"},{"inputs":[],"name":"isRegistrationOpen","outputs":[{"internalType":"bool","name":"","type":"bool"}],"stateMutability":"view","type":"function"},{"inputs":[{"internalType":"address","name":"","type":"address"}],"name":"isVoterRegistered","outputs":[{"internalType":"bool","name":"","type":"bool"}],"stateMutability":"view","type":"function"},{"inputs":[],"name":"owner","outputs":[{"internalType":"address","name":"","type":"address"}],"stateMutability":"view","type":"function"},{"inputs":[{"internalType":"bytes","name":"ringSig","type":"bytes"},{"internalType":"bytes","name":"pkSet","type":"bytes"}],"name":"register","outputs":[],"stateMutability":"nonpayable","type":"function"},{"inputs":[{"internalType":"uint256","name":"","type":"uint256"}],"name":"registeredVoters","outputs":[{"internalType":"address","name":"","type":"address"}],"stateMutability":"view","type":"function"},{"inputs":[],"name":"registrationClosed","outputs":[{"internalType":"bool","name":"","type":"bool"}],"stateMutability":"view","type":"function"},{"inputs":[],"name":"renounceOwnership","outputs":[],"stateMutability":"nonpayable","type":"function"},{"inputs":[{"internalType":"address","name":"","type":"address"}],"name":"resultViewers","outputs":[{"internalType":"bool","name":"","type":"bool"}],"stateMutability":"view","type":"function"},{"inputs":[{"internalType":"address","name":"newOwner","type":"address"}],"name":"transferOwnership","outputs":[],"stateMutability":"nonpayable","type":"function"},{"inputs":[{"internalType":"uint256","name":"","type":"uint256"}],"name":"voterIdToAddress","outputs":[{"internalType":"address","name":"","type":"address"}],"stateMutability":"view","type":"function"}],"evm":{"bytecode":{"linkReferences":{},"object":"60806040526004805460ff19169055600160055534801561001f57600080fd5b50338061004657604051631e4fbdf760e01b81526000600482015260240160405180910390fd5b61004f81610055565b506100a5565b600080546001600160a01b038381166001600160a01b0319831681178455604051919092169283917f8be0079c531659141344cd1fd0a4f28419497f9722a3daafe3b4186f6b6457e09190a35050565b6107c1806100b46000396000f3fe608060405234801561001057600080fd5b50600436106100cf5760003560e01c8063a3747fef1161008c578063eb2119db11610066578063eb2119db14610183578063f17cbb6f146101a6578063f248c6bd146101c9578063f2fde38b146101f257600080fd5b8063a3747fef1461014c578063a91081a11461015f578063d52e953c1461017057600080fd5b80632436e06b146100d4578063715018a6146101045780637ab2af2b1461010e5780637dc673bc146101265780638da5cb5b1461012e5780639f9a093c1461013f575b600080fd5b6100e76100e2366004610614565b610205565b6040516001600160a01b0390911681526020015b60405180910390f35b61010c61022f565b005b60045460ff16155b60405190151581526020016100fb565b61010c610243565b6000546001600160a01b03166100e7565b6004546101169060ff1681565b61010c61015a3660046106d0565b6102e8565b6003546040519081526020016100fb565b61010c61017e366004610734565b6104af565b610116610191366004610734565b60016020526000908152604090205460ff1681565b6101166101b4366004610734565b60066020526000908152604090205460ff1681565b6100e76101d7366004610614565b6002602052600090815260409020546001600160a01b031681565b61010c610200366004610734565b610559565b6003818154811061021557600080fd5b6000918252602090912001546001600160a01b0316905081565b610237610597565b61024160006105c4565b565b61024b610597565b60045460ff161561029c5760405162461bcd60e51b8152602060048201526016602482015275149959da5cdd1c985d1a5bdb881a5cc818db1bdcd95960521b60448201526064015b60405180910390fd5b6004805460ff191660011790556003546040517f383b6ce38b867405b4f42fa404692e07842868068badd063c9bfeb0e7f263f62916102de9190815260200190565b60405180910390a1565b60045460ff16156103345760405162461bcd60e51b8152602060048201526016602482015275149959da5cdd1c985d1a5bdb881a5cc818db1bdcd95960521b6044820152606401610293565b6000546001600160a01b0316330361038e5760405162461bcd60e51b815260206004820181905260248201527f4f776e65722063616e6e6f74207265676973746572206173206120766f7465726044820152606401610293565b3360009081526001602052604090205460ff16156103ee5760405162461bcd60e51b815260206004820152601860248201527f566f74657220616c7265616479207265676973746572656400000000000000006044820152606401610293565b336000818152600160208181526040808420805460ff1916841790556005805485526002835281852080546001600160a01b031990811688179091556003805495860181559095527fc2575a0e9e593c00f959f8c92f12db2869c3395a3b0502d05e2516446f71f85b90930180549094168517909355905491519182527f6f3bf3fa84e4763a43b3d23f9d79be242d6d5c834941ff4c1111b67469e1150c910160405180910390a2600580549060006104a683610764565b91905055505050565b6104b7610597565b6001600160a01b03811661050d5760405162461bcd60e51b815260206004820152601c60248201527f43616e6e6f74206772616e7420746f207a65726f2061646472657373000000006044820152606401610293565b6001600160a01b038116600081815260066020526040808220805460ff19166001179055517f9749a8e49d1b73f37a892e82321de26a854d2c9c03ae0b6a85cb2ed280e637849190a250565b610561610597565b6001600160a01b03811661058b57604051631e4fbdf760e01b815260006004820152602401610293565b610594816105c4565b50565b6000546001600160a01b031633146102415760405163118cdaa760e01b8152336004820152602401610293565b600080546001600160a01b038381166001600160a01b0319831681178455604051919092169283917f8be0079c531659141344cd1fd0a4f28419497f9722a3daafe3b4186f6b6457e09190a35050565b60006020828403121561062657600080fd5b5035919050565b634e487b7160e01b600052604160045260246000fd5b600082601f83011261065457600080fd5b813567ffffffffffffffff8082111561066f5761066f61062d565b604051601f8301601f19908116603f011681019082821181831017156106975761069761062d565b816040528381528660208588010111156106b057600080fd5b836020870160208301376000602085830101528094505050505092915050565b600080604083850312156106e357600080fd5b823567ffffffffffffffff808211156106fb57600080fd5b61070786838701610643565b9350602085013591508082111561071d57600080fd5b5061072a85828601610643565b9150509250929050565b60006020828403121561074657600080fd5b81356001600160a01b038116811461075d57600080fd5b9392505050565b60006001820161078457634e487b7160e01b600052601160045260246000fd5b506001019056fea2646970667358221220575e4f884bc72e172321179241c4e6ef1b13125ecfbe7c99530c7e43c504a2da64736f6c63430008160033","opcodes":"PUSH1 0x80 PUSH1 0x40 MSTORE PUSH1 0x4 DUP1 SLOAD PUSH1 0xFF NOT AND SWAP1 SSTORE PUSH1 0x1 PUSH1 0x5 SSTORE CALLVALUE DUP1 ISZERO PUSH2 0x1F JUMPI PUSH1 0x0 DUP1 REVERT JUMPDEST POP CALLER DUP1 PUSH2 0x46 JUMPI PUSH1 0x40 MLOAD PUSH4 0x1E4FBDF7 PUSH1 0xE0 SHL DUP2 MSTORE PUSH1 0x0 PUSH1 0x4 DUP3 ADD MSTORE PUSH1 0x24 ADD PUSH1 0x40 MLOAD DUP1 SWAP2 SUB SWAP1 REVERT JUMPDEST PUSH2 0x4F DUP2 PUSH2 0x55 JUMP JUMPDEST POP PUSH2 0xA5 JUMP JUMPDEST PUSH1 0x0 DUP1 SLOAD PUSH1 0x1 PUSH1 0x1 PUSH1 0xA0 SHL SUB DUP4 DUP2 AND PUSH1 0x1 PUSH1 0x1 PUSH1 0xA0 SHL SUB NOT DUP4 AND DUP2 OR DUP5 SSTORE PUSH1 0x40 MLOAD SWAP2 SWAP1 SWAP3 AND SWAP3 DUP4 SWAP2 PUSH32 0x8BE0079C531659141344CD1FD0A4F28419497F9722A3DAAFE3B4186F6B6457E0 SWAP2 SWAP1 LOG3 POP POP JUMP JUMPDEST PUSH2 0x7C1 DUP1 PUSH2 0xB4 PUSH1 0x0 CODECOPY PUSH1 0x0 RETURN INVALID PUSH1 0x80 PUSH1 0x40 MSTORE CALLVALUE DUP1 ISZERO PUSH2 0x10 JUMPI PUSH1 0x0 DUP1 REVERT JUMPDEST POP PUSH1 0x4 CALLDATASIZE LT PUSH2 0xCF JUMPI PUSH1 0x0 CALLDATALOAD PUSH1 0xE0 SHR DUP1 PUSH4 0xA3747FEF GT PUSH2 0x8C JUMPI DUP1 PUSH4 0xEB2119DB GT PUSH2 0x66 JUMPI DUP1 PUSH4 0xEB2119DB EQ PUSH2 0x183 JUMPI DUP1 PUSH4 0xF17CBB6F EQ PUSH2 0x1A6 JUMPI DUP1 PUSH4 0xF248C6BD EQ PUSH2 0x1C9 JUMPI DUP1 PUSH4 0xF2FDE38B EQ PUSH2 0x1F2 JUMPI PUSH1 0x0 DUP1 REVERT JUMPDEST DUP1 PUSH4 0xA3747FEF EQ PUSH2 0x14C JUMPI DUP1 PUSH4 0xA91081A1 EQ PUSH2 0x15F JUMPI DUP1 PUSH4 0xD52E953C EQ PUSH2 0x170 JUMPI PUSH1 0x0 DUP1 REVERT JUMPDEST DUP1 PUSH4 0x2436E06B EQ PUSH2 0xD4 JUMPI DUP1 PUSH4 0x715018A6 EQ PUSH2 0x104 JUMPI DUP1 PUSH4 0x7AB2AF2B EQ PUSH2 0x10E JUMPI DUP1 PUSH4 0x7DC673BC EQ PUSH2 0x126 JUMPI DUP1 PUSH4 0x8DA5CB5B EQ PUSH2 0x12E JUMPI DUP1 PUSH4 0x9F9A093C EQ PUSH2 0x13F JUMPI JUMPDEST PUSH1 0x0 DUP1 REVERT JUMPDEST PUSH2 0xE7 PUSH2 0xE2 CALLDATASIZE PUSH1 0x4 PUSH2 0x614 JUMP JUMPDEST PUSH2 0x205 JUMP JUMPDEST PUSH1 0x40 MLOAD PUSH1 0x1 PUSH1 0x1 PUSH1 0xA0 SHL SUB SWAP1 SWAP2 AND DUP2 MSTORE PUSH1 0x20 ADD JUMPDEST PUSH1 0x40 MLOAD DUP1 SWAP2 SUB SWAP1 RETURN JUMPDEST PUSH2 0x10C PUSH2 0x22F JUMP JUMPDEST STOP JUMPDEST PUSH1 0x4 SLOAD PUSH1 0xFF AND ISZERO JUMPDEST PUSH1 0x40 MLOAD SWAP1 ISZERO ISZERO DUP2 MSTORE PUSH1 0x20 ADD PUSH2 0xFB JUMP JUMPDEST PUSH2 0x10C PUSH2 0x243 JUMP JUMPDEST PUSH1 0x0 SLOAD PUSH1 0x1 PUSH1 0x1 PUSH1 0xA0 SHL SUB AND PUSH2 0xE7 JUMP JUMPDEST PUSH1 0x4 SLOAD PUSH2 0x116 SWAP1 PUSH1 0xFF AND DUP2 JUMP JUMPDEST PUSH2 0x10C PUSH2 0x15A CALLDATASIZE PUSH1 0x4 PUSH2 0x6D0 JUMP JUMPDEST PUSH2 0x2E8 JUMP JUMPDEST PUSH1 0x3 SLOAD PUSH1 0x40 MLOAD SWAP1 DUP2 MSTORE PUSH1 0x20 ADD PUSH2 0xFB JUMP JUMPDEST PUSH2 0x10C PUSH2 0x17E CALLDATASIZE PUSH1 0x4 PUSH2 0x734 JUMP JUMPDEST PUSH2 0x4AF JUMP JUMPDEST PUSH2 0x116 PUSH2 0x191 CALLDATASIZE PUSH1 0x4 PUSH2 0x734 JUMP JUMPDEST PUSH1 0x1 PUSH1 0x20 MSTORE PUSH1 0x0 SWAP1 DUP2 MSTORE PUSH1 0x40 SWAP1 KECCAK256 SLOAD PUSH1 0xFF AND DUP2 JUMP JUMPDEST PUSH2 0x116 PUSH2 0x1B4 CALLDATASIZE PUSH1 0x4 PUSH2 0x734 JUMP JUMPDEST PUSH1 0x6 PUSH1 0x20 MSTORE PUSH1 0x0 SWAP1 DUP2 MSTORE PUSH1 0x40 SWAP1 KECCAK256 SLOAD PUSH1 0xFF AND DUP2 JUMP JUMPDEST PUSH2 0xE7 PUSH2 0x1D7 CALLDATASIZE PUSH1 0x4 PUSH2 0x614 JUMP JUMPDEST PUSH1 0x2 PUSH1 0x20 MSTORE PUSH1 0x0 SWAP1 DUP2 MSTORE PUSH1 0x40 SWAP1 KECCAK256 SLOAD PUSH1 0x1 PUSH1 0x1 PUSH1 0xA0 SHL SUB AND DUP2 JUMP JUMPDEST PUSH2 0x10C PUSH2 0x200 CALLDATASIZE PUSH1 0x4 PUSH2 0x734 JUMP JUMPDEST PUSH2 0x559 JUMP JUMPDEST PUSH1 0x3 DUP2 DUP2 SLOAD DUP2 LT PUSH2 0x215 JUMPI PUSH1 0x0 DUP1 REVERT JUMPDEST PUSH1 0x0 SWAP2 DUP3 MSTORE PUSH1 0x20 SWAP1 SWAP2 KECCAK256 ADD SLOAD PUSH1 0x1 PUSH1 0x1 PUSH1 0xA0 SHL SUB AND SWAP1 POP DUP2 JUMP JUMPDEST PUSH2 0x237 PUSH2 0x597 JUMP JUMPDEST PUSH2 0x241 PUSH1 0x0 PUSH2 0x5C4 JUMP JUMPDEST JUMP JUMPDEST PUSH2 0x24B PUSH2 0x597 JUMP JUMPDEST PUSH1 0x4 SLOAD PUSH1 0xFF AND ISZERO PUSH2 0x29C JUMPI PUSH1 0x40 MLOAD PUSH3 0x461BCD PUSH1 0xE5 SHL DUP2 MSTORE PUSH1 0x20 PUSH1 0x4 DUP3 ADD MSTORE PUSH1 0x16 PUSH1 0x24 DUP3 ADD MSTORE PUSH22 0x149959DA5CDD1C985D1A5BDB881A5CC818DB1BDCD959 PUSH1 0x52 SHL PUSH1 0x44 DUP3 ADD MSTORE PUSH1 0x64 ADD JUMPDEST PUSH1 0x40 MLOAD DUP1 SWAP2 SUB SWAP1 REVERT JUMPDEST PUSH1 0x4 DUP1 SLOAD PUSH1 0xFF NOT AND PUSH1 0x1 OR SWAP1 SSTORE PUSH1 0x3 SLOAD PUSH1 0x40 MLOAD PUSH32 0x383B6CE38B867405B4F42FA404692E07842868068BADD063C9BFEB0E7F263F62 SWAP2 PUSH2 0x2DE SWAP2 SWAP1 DUP2 MSTORE PUSH1 0x20 ADD SWAP1 JUMP JUMPDEST PUSH1 0x40 MLOAD DUP1 SWAP2 SUB SWAP1 LOG1 JUMP JUMPDEST PUSH1 0x4 SLOAD PUSH1 0xFF AND ISZERO PUSH2 0x334 JUMPI PUSH1 0x40 MLOAD PUSH3 0x461BCD PUSH1 0xE5 SHL DUP2 MSTORE PUSH1 0x20 PUSH1 0x4 DUP3 ADD MSTORE PUSH1 0x16 PUSH1 0x24 DUP3 ADD MSTORE PUSH22 0x149959DA5CDD1C985D1A5BDB881A5CC818DB1BDCD959 PUSH1 0x52 SHL PUSH1 0x44 DUP3 ADD MSTORE PUSH1 0x64 ADD PUSH2 0x293 JUMP JUMPDEST PUSH1 0x0 SLOAD PUSH1 0x1 PUSH1 0x1 PUSH1 0xA0 SHL SUB AND CALLER SUB PUSH2 0x38E JUMPI PUSH1 0x40 MLOAD PUSH3 0x461BCD PUSH1 0xE5 SHL DUP2 MSTORE PUSH1 0x20 PUSH1 0x4 DUP3 ADD DUP2 SWAP1 MSTORE PUSH1 0x24 DUP3 ADD MSTORE PUSH32 0x4F776E65722063616E6E6F74207265676973746572206173206120766F746572 PUSH1 0x44 DUP3 ADD MSTORE PUSH1 0x64 ADD PUSH2 0x293 JUMP JUMPDEST CALLER PUSH1 0x0 SWAP1 DUP2 MSTORE PUSH1 0x1 PUSH1 0x20 MSTORE PUSH1 0x40 SWAP1 KECCAK256 SLOAD PUSH1 0xFF AND ISZERO PUSH2 0x3EE JUMPI PUSH1 0x40 MLOAD PUSH3 0x461BCD PUSH1 0xE5 SHL DUP2 MSTORE PUSH1 0x20 PUSH1 0x4 DUP3 ADD MSTORE PUSH1 0x18 PUSH1 0x24 DUP3 ADD MSTORE PUSH32 0x566F74657220616C726561647920726567697374657265640000000000000000 PUSH1 0x44 DUP3 ADD MSTORE PUSH1 0x64 ADD PUSH2 0x293 JUMP JUMPDEST CALLER PUSH1 0x0 DUP2 DUP2 MSTORE PUSH1 0x1 PUSH1 0x20 DUP2 DUP2 MSTORE PUSH1 0x40 DUP1 DUP5 KECCAK256 DUP1 SLOAD PUSH1 0xFF NOT AND DUP5 OR SWAP1 SSTORE PUSH1 0x5 DUP1 SLOAD DUP6 MSTORE PUSH1 0x2 DUP4 MSTORE DUP2 DUP6 KECCAK256 DUP1 SLOAD PUSH1 0x1 PUSH1 0x1 PUSH1 0xA0 SHL SUB NOT SWAP1 DUP2 AND DUP9 OR SWAP1 SWAP2 SSTORE PUSH1 0x3 DUP1 SLOAD SWAP6 DUP7 ADD DUP2 SSTORE SWAP1 SWAP6 MSTORE PUSH32 0xC2575A0E9E593C00F959F8C92F12DB2869C3395A3B0502D05E2516446F71F85B SWAP1 SWAP4 ADD DUP1 SLOAD SWAP1 SWAP5 AND DUP6 OR SWAP1 SWAP4 SSTORE SWAP1 SLOAD SWAP2 MLOAD SWAP2 DUP3 MSTORE PUSH32 0x6F3BF3FA84E4763A43B3D23F9D79BE242D6D5C834941FF4C1111B67469E1150C SWAP2 ADD PUSH1 0x40 MLOAD DUP1 SWAP2 SUB SWAP1 LOG2 PUSH1 0x5 DUP1 SLOAD SWAP1 PUSH1 0x0 PUSH2 0x4A6 DUP4 PUSH2 0x764 JUMP JUMPDEST SWAP2 SWAP1 POP SSTORE POP POP POP JUMP JUMPDEST PUSH2 0x4B7 PUSH2 0x597 JUMP JUMPDEST PUSH1 0x1 PUSH1 0x1 PUSH1 0xA0 SHL SUB DUP2 AND PUSH2 0x50D JUMPI PUSH1 0x40 MLOAD PUSH3 0x461BCD PUSH1 0xE5 SHL DUP2 MSTORE PUSH1 0x20 PUSH1 0x4 DUP3 ADD MSTORE PUSH1 0x1C PUSH1 0x24 DUP3 ADD MSTORE PUSH32 0x43616E6E6F74206772616E7420746F207A65726F206164647265737300000000 PUSH1 0x44 DUP3 ADD MSTORE PUSH1 0x64 ADD PUSH2 0x293 JUMP JUMPDEST PUSH1 0x1 PUSH1 0x1 PUSH1 0xA0 SHL SUB DUP2 AND PUSH1 0x0 DUP2 DUP2 MSTORE PUSH1 0x6 PUSH1 0x20 MSTORE PUSH1 0x40 DUP1 DUP3 KECCAK256 DUP1 SLOAD PUSH1 0xFF NOT AND PUSH1 0x1 OR SWAP1 SSTORE MLOAD PUSH32 0x9749A8E49D1B73F37A892E82321DE26A854D2C9C03AE0B6A85CB2ED280E63784 SWAP2 SWAP1 LOG2 POP JUMP JUMPDEST PUSH2 0x561 PUSH2 0x597 JUMP JUMPDEST PUSH1 0x1 PUSH1 0x1 PUSH1 0xA0 SHL SUB DUP2 AND PUSH2 0x58B JUMPI PUSH1 0x40 MLOAD PUSH4 0x1E4FBDF7 PUSH1 0xE0 SHL DUP2 MSTORE PUSH1 0x0 PUSH1 0x4 DUP3 ADD MSTORE PUSH1 0x24 ADD PUSH2 0x293 JUMP JUMPDEST PUSH2 0x594 DUP2 PUSH2 0x5C4 JUMP JUMPDEST POP JUMP JUMPDEST PUSH1 0x0 SLOAD PUSH1 0x1 PUSH1 0x1 PUSH1 0xA0 SHL SUB AND CALLER EQ PUSH2 0x241 JUMPI PUSH1 0x40 MLOAD PUSH4 0x118CDAA7 PUSH1 0xE0 SHL DUP2 MSTORE CALLER PUSH1 0x4 DUP3 ADD MSTORE PUSH1 0x24 ADD PUSH2 0x293 JUMP JUMPDEST PUSH1 0x0 DUP1 SLOAD PUSH1 0x1 PUSH1 0x1 PUSH1 0xA0 SHL SUB DUP4 DUP2 AND PUSH1 0x1 PUSH1 0x1 PUSH1 0xA0 SHL SUB NOT DUP4 AND DUP2 OR DUP5 SSTORE PUSH1 0x40 MLOAD SWAP2 SWAP1 SWAP3 AND SWAP3 DUP4 SWAP2 PUSH32 0x8BE0079C531659141344CD1FD0A4F28419497F9722A3DAAFE3B4186F6B6457E0 SWAP2 SWAP1 LOG3 POP POP JUMP JUMPDEST PUSH1 0x0 PUSH1 0x20 DUP3 DUP5 SUB SLT ISZERO PUSH2 0x626 JUMPI PUSH1 0x0 DUP1 REVERT JUMPDEST POP CALLDATALOAD SWAP2 SWAP1 POP JUMP JUMPDEST PUSH4 0x4E487B71 PUSH1 0xE0 SHL PUSH1 0x0 MSTORE PUSH1 0x41 PUSH1 0x4 MSTORE PUSH1 0x24 PUSH1 0x0 REVERT JUMPDEST PUSH1 0x0 DUP3 PUSH1 0x1F DUP4 ADD SLT PUSH2 0x654 JUMPI PUSH1 0x0 DUP1 REVERT JUMPDEST DUP2 CALLDATALOAD PUSH8 0xFFFFFFFFFFFFFFFF DUP1 DUP3 GT ISZERO PUSH2 0x66F JUMPI PUSH2 0x66F PUSH2 0x62D JUMP JUMPDEST PUSH1 0x40 MLOAD PUSH1 0x1F DUP4 ADD PUSH1 0x1F NOT SWAP1 DUP2 AND PUSH1 0x3F ADD AND DUP2 ADD SWAP1 DUP3 DUP3 GT DUP2 DUP4 LT OR ISZERO PUSH2 0x697 JUMPI PUSH2 0x697 PUSH2 0x62D JUMP JUMPDEST DUP2 PUSH1 0x40 MSTORE DUP4 DUP2 MSTORE DUP7 PUSH1 0x20 DUP6 DUP9 ADD ADD GT ISZERO PUSH2 0x6B0 JUMPI PUSH1 0x0 DUP1 REVERT JUMPDEST DUP4 PUSH1 0x20 DUP8 ADD PUSH1 0x20 DUP4 ADD CALLDATACOPY PUSH1 0x0 PUSH1 0x20 DUP6 DUP4 ADD ADD MSTORE DUP1 SWAP5 POP POP POP POP POP SWAP3 SWAP2 POP POP JUMP JUMPDEST PUSH1 0x0 DUP1 PUSH1 0x40 DUP4 DUP6 SUB SLT ISZERO PUSH2 0x6E3 JUMPI PUSH1 0x0 DUP1 REVERT JUMPDEST DUP3 CALLDATALOAD PUSH8 0xFFFFFFFFFFFFFFFF DUP1 DUP3 GT ISZERO PUSH2 0x6FB JUMPI PUSH1 0x0 DUP1 REVERT JUMPDEST PUSH2 0x707 DUP7 DUP4 DUP8 ADD PUSH2 0x643 JUMP JUMPDEST SWAP4 POP PUSH1 0x20 DUP6 ADD CALLDATALOAD SWAP2 POP DUP1 DUP3 GT ISZERO PUSH2 0x71D JUMPI PUSH1 0x0 DUP1 REVERT JUMPDEST POP PUSH2 0x72A DUP6 DUP3 DUP7 ADD PUSH2 0x643 JUMP JUMPDEST SWAP2 POP POP SWAP3 POP SWAP3 SWAP1 POP JUMP JUMPDEST PUSH1 0x0 PUSH1 0x20 DUP3 DUP5 SUB SLT ISZERO PUSH2 0x746 JUMPI PUSH1 0x0 DUP1 REVERT JUMPDEST DUP2 CALLDATALOAD PUSH1 0x1 PUSH1 0x1 PUSH1 0xA0 SHL SUB DUP2 AND DUP2 EQ PUSH2 0x75D JUMPI PUSH1 0x0 DUP1 REVERT JUMPDEST SWAP4 SWAP3 POP POP POP JUMP JUMPDEST PUSH1 0x0 PUSH1 0x1 DUP3 ADD PUSH2 0x784 JUMPI PUSH4 0x4E487B71 PUSH1 0xE0 SHL PUSH1 0x0 MSTORE PUSH1 0x11 PUSH1 0x4 MSTORE PUSH1 0x24 PUSH1 0x0 REVERT JUMPDEST POP PUSH1 0x1 ADD SWAP1 JUMP INVALID LOG2 PUSH5 0x6970667358 0x22 SLT KECCAK256 JUMPI 0x5E 0x4F DUP9 0x4B 0xC7 0x2E OR 0x23 0x21 OR SWAP3 COINBASE 0xC4 0xE6 0xEF SHL SGT SLT 0x5E 0xCF 0xBE PUSH29 0x99530C7E43C504A2DA64736F6C63430008160033000000000000000000 "},"methodIdentifiers":{"closeRegistration()":"7dc673bc","getRegisteredVotersCount()":"a91081a1","grantResultViewer(address)":"d52e953c","isRegistrationOpen()":"7ab2af2b","isVoterRegistered(address)":"eb2119db","owner()":"8da5cb5b","register(bytes,bytes)":"a3747fef","registeredVoters(uint256)":"2436e06b","registrationClosed()":"9f9a093c","renounceOwnership()":"715018a6","resultViewers(address)":"f17cbb6f","transferOwnership(address)":"f2fde38b","voterIdToAddress(uint256)":"f248c6bd"}}}}}