{"contracts/CountingContract.sol":{"CountingContract":{"abi":[{"anonymous":false,"inputs":[{"indexed":true,"internalType":"address","name":"voterAddress","type":"address"},{"indexed":false,"internalType":"bytes32","name":"ballotCID","type":"bytes32"}],"name":"BallotAccepted","type":"event"},{"anonymous":false,"inputs":[{"indexed":false,"internalType":"bytes","name":"encSigma","type":"bytes"},{"indexed":false,"internalType":"bytes","name":"encSortedList","type":"bytes"}],"name":"ResultPublished","type":"event"},{"inputs":[],"name":"encryptedSigma","outputs":[{"internalType":"bytes","name":"","type":"bytes"}],"stateMutability":"view","type":"function"},{"inputs":[],"name":"encryptedSortedBallots","outputs":[{"internalType":"bytes","name":"","type":"bytes"}],"stateMutability":"view","type":"function"},{"inputs":[{"internalType":"address","name":"voterAddress","type":"address"}],"name":"getSubmittedBallotCID","outputs":[{"internalType":"bytes32","name":"","type":"bytes32"}],"stateMutability":"view","type":"function"},{"inputs":[{"internalType":"bytes","name":"encSigma_","type":"bytes"},{"internalType":"bytes","name":"encSorted_","type":"bytes"}],"name":"publishResult","outputs":[],"stateMutability":"nonpayable","type":"function"},{"inputs":[{"internalType":"bytes32","name":"cid","type":"bytes32"},{"internalType":"bytes","name":"veRangeProof","type":"bytes"}],"name":"submitEncryptedBallot","outputs":[],"stateMutability":"nonpayable","type":"function"},{"inputs":[{"internalType":"address","name":"","type":"address"}],"name":"submittedBallots","outputs":[{"internalType":"bytes32","name":"","type":"bytes32"}],"stateMutability":"view","type":"function"}],"evm":{"bytecode":{"linkReferences":{},"object":"608060405234801561001057600080fd5b5061063b806100206000396000f3fe608060405234801561001057600080fd5b50600436106100625760003560e01c806304e371461461006757806378b23efc146100a357806379a12759146100b8578063a6545aa5146100d8578063e67b2343146100ed578063fb76c11314610100575b600080fd5b6100906100753660046102bf565b6001600160a01b031660009081526020819052604090205490565b6040519081526020015b60405180910390f35b6100b66100b1366004610392565b610108565b005b6100906100c63660046102bf565b60006020819052908152604090205481565b6100e061015f565b60405161009a919061043c565b6100b66100fb36600461044f565b6101ed565b6100e06102b2565b60016101148382610517565b5060026101218282610517565b507f4828df71818c7d1ccc17dfb2785d0b90baf4a253d4a42ccd2ad2bcd31397d4c182826040516101539291906105d7565b60405180910390a15050565b6002805461016c9061048c565b80601f01602080910402602001604051908101604052809291908181526020018280546101989061048c565b80156101e55780601f106101ba576101008083540402835291602001916101e5565b820191906000526020600020905b8154815290600101906020018083116101c857829003601f168201915b505050505081565b6101fb565b60405180910390fd5b336000908152602081905260409020541561026a5760405162461bcd60e51b815260206004820152602960248201527f42616c6c6f7420616c7265616479207375626d697474656420666f722074686960448201526873206164647265737360b81b60648201526084016101f2565b336000818152602081815260409182902085905590518481527f8fe82f26861a128b86619768301e0fa25aaf21e164853ad0eb748695653a60c5910160405180910390a25050565b6001805461016c9061048c565b6000602082840312156102d157600080fd5b81356001600160a01b03811681146102e857600080fd5b9392505050565b634e487b7160e01b600052604160045260246000fd5b600082601f83011261031657600080fd5b813567ffffffffffffffff80821115610331576103316102ef565b604051601f8301601f19908116603f01168101908282118183101715610359576103596102ef565b8160405283815286602085880101111561037257600080fd5b836020870160208301376000602085830101528094505050505092915050565b600080604083850312156103a557600080fd5b823567ffffffffffffffff808211156103bd57600080fd5b6103c986838701610305565b935060208501359150808211156103df57600080fd5b506103ec85828601610305565b9150509250929050565b6000815180845260005b8181101561041c57602081850181015186830182015201610400565b506000602082860101526020601f19601f83011685010191505092915050565b6020815260006102e860208301846103f6565b6000806040838503121561046257600080fd5b82359150602083013567ffffffffffffffff81111561048057600080fd5b6103ec85828601610305565b600181811c908216806104a057607f821691505b6020821081036104c057634e487b7160e01b600052602260045260246000fd5b50919050565b601f821115610512576000816000526020600020601f850160051c810160208610156104ef5750805b601f850160051c820191505b8181101561050e578281556001016104fb565b5050505b505050565b815167ffffffffffffffff811115610531576105316102ef565b6105458161053f845461048c565b846104c6565b602080601f83116001811461057a57600084156105625750858301515b600019600386901b1c1916600185901b17855561050e565b600085815260208120601f198616915b828110156105a95788860151825594840194600190910190840161058a565b50858210156105c75787850151600019600388901b60f8161c191681555b5050505050600190811b01905550565b6040815260006105ea60408301856103f6565b82810360208401526105fc81856103f6565b9594505050505056fea2646970667358221220fae6211f96e1fcb2f54ed8a4d5880bb03137eb58bb87d0b627252557c9283e6164736f6c63430008160033","opcodes":"PUSH1 0x80 PUSH1 0x40 MSTORE CALLVALUE DUP1 ISZERO PUSH2 0x10 JUMPI PUSH1 0x0 DUP1 REVERT JUMPDEST POP PUSH2 0x63B DUP1 PUSH2 0x20 PUSH1 0x0 CODECOPY PUSH1 0x0 RETURN INVALID PUSH1 0x80 PUSH1 0x40 MSTORE CALLVALUE DUP1 ISZERO PUSH2 0x10 JUMPI PUSH1 0x0 DUP1 REVERT JUMPDEST POP PUSH1 0x4 CALLDATASIZE LT PUSH2 0x62 JUMPI PUSH1 0x0 CALLDATALOAD PUSH1 0xE0 SHR DUP1 PUSH4 0x4E37146 EQ PUSH2 0x67 JUMPI DUP1 PUSH4 0x78B23EFC EQ PUSH2 0xA3 JUMPI DUP1 PUSH4 0x79A12759 EQ PUSH2 0xB8 JUMPI DUP1 PUSH4 0xA6545AA5 EQ PUSH2 0xD8 JUMPI DUP1 PUSH4 0xE67B2343 EQ PUSH2 0xED JUMPI DUP1 PUSH4 0xFB76C113 EQ PUSH2 0x100 JUMPI JUMPDEST PUSH1 0x0 DUP1 REVERT JUMPDEST PUSH2 0x90 PUSH2 0x75 CALLDATASIZE PUSH1 0x4 PUSH2 0x2BF JUMP JUMPDEST PUSH1 0x1 PUSH1 0x1 PUSH1 0xA0 SHL SUB AND PUSH1 0x0 SWAP1 DUP2 MSTORE PUSH1 0x20 DUP2 SWAP1 MSTORE PUSH1 0x40 SWAP1 KECCAK256 SLOAD SWAP1 JUMP JUMPDEST PUSH1 0x40 MLOAD SWAP1 DUP2 MSTORE PUSH1 0x20 ADD JUMPDEST PUSH1 0x40 MLOAD DUP1 SWAP2 SUB SWAP1 RETURN JUMPDEST PUSH2 0xB6 PUSH2 0xB1 CALLDATASIZE PUSH1 0x4 PUSH2 0x392 JUMP JUMPDEST PUSH2 0x108 JUMP JUMPDEST STOP JUMPDEST PUSH2 0x90 PUSH2 0xC6 CALLDATASIZE PUSH1 0x4 PUSH2 0x2BF JUMP JUMPDEST PUSH1 0x0 PUSH1 0x20 DUP2 SWAP1 MSTORE SWAP1 DUP2 MSTORE PUSH1 0x40 SWAP1 KECCAK256 SLOAD DUP2 JUMP JUMPDEST PUSH2 0xE0 PUSH2 0x15F JUMP JUMPDEST PUSH1 0x40 MLOAD PUSH2 0x9A SWAP2 SWAP1 PUSH2 0x43C JUMP JUMPDEST PUSH2 0xB6 PUSH2 0xFB CALLDATASIZE PUSH1 0x4 PUSH2 0x44F JUMP JUMPDEST PUSH2 0x1ED JUMP JUMPDEST PUSH2 0xE0 PUSH2 0x2B2 JUMP JUMPDEST PUSH1 0x1 PUSH2 0x114 DUP4 DUP3 PUSH2 0x517 JUMP JUMPDEST POP PUSH1 0x2 PUSH2 0x121 DUP3 DUP3 PUSH2 0x517 JUMP JUMPDEST POP PUSH32 0x4828DF71818C7D1CCC17DFB2785D0B90BAF4A253D4A42CCD2AD2BCD31397D4C1 DUP3 DUP3 PUSH1 0x40 MLOAD PUSH2 0x153 SWAP3 SWAP2 SWAP1 PUSH2 0x5D7 JUMP JUMPDEST PUSH1 0x40 MLOAD DUP1 SWAP2 SUB SWAP1 LOG1 POP POP JUMP JUMPDEST PUSH1 0x2 DUP1 SLOAD PUSH2 0x16C SWAP1 PUSH2 0x48C JUMP JUMPDEST DUP1 PUSH1 0x1F ADD PUSH1 0x20 DUP1 SWAP2 DIV MUL PUSH1 0x20 ADD PUSH1 0x40 MLOAD SWAP1 DUP2 ADD PUSH1 0x40 MSTORE DUP1 SWAP3 SWAP2 SWAP1 DUP2 DUP2 MSTORE PUSH1 0x20 ADD DUP3 DUP1 SLOAD PUSH2 0x198 SWAP1 PUSH2 0x48C JUMP JUMPDEST DUP1 ISZERO PUSH2 0x1E5 JUMPI DUP1 PUSH1 0x1F LT PUSH2 0x1BA JUMPI PUSH2 0x100 DUP1 DUP4 SLOAD DIV MUL DUP4 MSTORE SWAP2 PUSH1 0x20 ADD SWAP2 PUSH2 0x1E5 JUMP JUMPDEST DUP3 ADD SWAP2 SWAP1 PUSH1 0x0 MSTORE PUSH1 0x20 PUSH1 0x0 KECCAK256 SWAP1 JUMPDEST DUP2 SLOAD DUP2 MSTORE SWAP1 PUSH1 0x1 ADD SWAP1 PUSH1 0x20 ADD DUP1 DUP4 GT PUSH2 0x1C8 JUMPI DUP3 SWAP1 SUB PUSH1 0x1F AND DUP3 ADD SWAP2 JUMPDEST POP POP POP POP POP DUP2 JUMP JUMPDEST PUSH2 0x1FB JUMP JUMPDEST PUSH1 0x40 MLOAD DUP1 SWAP2 SUB SWAP1 REVERT JUMPDEST CALLER PUSH1 0x0 SWAP1 DUP2 MSTORE PUSH1 0x20 DUP2 SWAP1 MSTORE PUSH1 0x40 SWAP1 KECCAK256 SLOAD ISZERO PUSH2 0x26A JUMPI PUSH1 0x40 MLOAD PUSH3 0x461BCD PUSH1 0xE5 SHL DUP2 MSTORE PUSH1 0x20 PUSH1 0x4 DUP3 ADD MSTORE PUSH1 0x29 PUSH1 0x24 DUP3 ADD MSTORE PUSH32 0x42616C6C6F7420616C7265616479207375626D697474656420666F7220746869 PUSH1 0x44 DUP3 ADD MSTORE PUSH9 0x732061646472657373 PUSH1 0xB8 SHL PUSH1 0x64 DUP3 ADD MSTORE PUSH1 0x84 ADD PUSH2 0x1F2 JUMP JUMPDEST CALLER PUSH1 0x0 DUP2 DUP2 MSTORE PUSH1 0x20 DUP2 DUP2 MSTORE PUSH1 0x40 SWAP2 DUP3 SWAP1 KECCAK256 DUP6 SWAP1 SSTORE SWAP1 MLOAD DUP5 DUP2 MSTORE PUSH32 0x8FE82F26861A128B86619768301E0FA25AAF21E164853AD0EB748695653A60C5 SWAP2 ADD PUSH1 0x40 MLOAD DUP1 SWAP2 SUB SWAP1 LOG2 POP POP JUMP JUMPDEST PUSH1 0x1 DUP1 SLOAD PUSH2 0x16C SWAP1 PUSH2 0x48C JUMP JUMPDEST PUSH1 0x0 PUSH1 0x20 DUP3 DUP5 SUB SLT ISZERO PUSH2 0x2D1 JUMPI PUSH1 0x0 DUP1 REVERT JUMPDEST DUP2 CALLDATALOAD PUSH1 0x1 PUSH1 0x1 PUSH1 0xA0 SHL SUB DUP2 AND DUP2 EQ PUSH2 0x2E8 JUMPI PUSH1 0x0 DUP1 REVERT JUMPDEST SWAP4 SWAP3 POP POP POP JUMP JUMPDEST PUSH4 0x4E487B71 PUSH1 0xE0 SHL PUSH1 0x0 MSTORE PUSH1 0x41 PUSH1 0x4 MSTORE PUSH1 0x24 PUSH1 0x0 REVERT JUMPDEST PUSH1 0x0 DUP3 PUSH1 0x1F DUP4 ADD SLT PUSH2 0x316 JUMPI PUSH1 0x0 DUP1 REVERT JUMPDEST DUP2 CALLDATALOAD PUSH8 0xFFFFFFFFFFFFFFFF DUP1 DUP3 GT ISZERO PUSH2 0x331 JUMPI PUSH2 0x331 PUSH2 0x2EF JUMP JUMPDEST PUSH1 0x40 MLOAD PUSH1 0x1F DUP4 ADD PUSH1 0x1F NOT SWAP1 DUP2 AND PUSH1 0x3F ADD AND DUP2 ADD SWAP1 DUP3 DUP3 GT DUP2 DUP4 LT OR ISZERO PUSH2 0x359 JUMPI PUSH2 0x359 PUSH2 0x2EF JUMP JUMPDEST DUP2 PUSH1 0x40 MSTORE DUP4 DUP2 MSTORE DUP7 PUSH1 0x20 DUP6 DUP9 ADD ADD GT ISZERO PUSH2 0x372 JUMPI PUSH1 0x0 DUP1 REVERT JUMPDEST DUP4 PUSH1 0x20 DUP8 ADD PUSH1 0x20 DUP4 ADD CALLDATACOPY PUSH1 0x0 PUSH1 0x20 DUP6 DUP4 ADD ADD MSTORE DUP1 SWAP5 POP POP POP POP POP SWAP3 SWAP2 POP POP JUMP JUMPDEST PUSH1 0x0 DUP1 PUSH1 0x40 DUP4 DUP6 SUB SLT ISZERO PUSH2 0x3A5 JUMPI PUSH1 0x0 DUP1 REVERT JUMPDEST DUP3 CALLDATALOAD PUSH8 0xFFFFFFFFFFFFFFFF DUP1 DUP3 GT ISZERO PUSH2 0x3BD JUMPI PUSH1 0x0 DUP1 REVERT JUMPDEST PUSH2 0x3C9 DUP7 DUP4 DUP8 ADD PUSH2 0x305 JUMP JUMPDEST SWAP4 POP PUSH1 0x20 DUP6 ADD CALLDATALOAD SWAP2 POP DUP1 DUP3 GT ISZERO PUSH2 0x3DF JUMPI PUSH1 0x0 DUP1 REVERT JUMPDEST POP PUSH2 0x3EC DUP6 DUP3 DUP7 ADD PUSH2 0x305 JUMP JUMPDEST SWAP2 POP POP SWAP3 POP SWAP3 SWAP1 POP JUMP JUMPDEST PUSH1 0x0 DUP2 MLOAD DUP1 DUP5 MSTORE PUSH1 0x0 JUMPDEST DUP2 DUP2 LT ISZERO PUSH2 0x41C JUMPI PUSH1 0x20 DUP2 DUP6 ADD DUP2 ADD MLOAD DUP7 DUP4 ADD DUP3 ADD MSTORE ADD PUSH2 0x400 JUMP JUMPDEST POP PUSH1 0x0 PUSH1 0x20 DUP3 DUP7 ADD ADD MSTORE PUSH1 0x20 PUSH1 0x1F NOT PUSH1 0x1F DUP4 ADD AND DUP6 ADD ADD SWAP2 POP POP SWAP3 SWAP2 POP POP JUMP JUMPDEST PUSH1 0x20 DUP2 MSTORE PUSH1 0x0 PUSH2 0x2E8 PUSH1 0x20 DUP4 ADD DUP5 PUSH2 0x3F6 JUMP JUMPDEST PUSH1 0x0 DUP1 PUSH1 0x40 DUP4 DUP6 SUB SLT ISZERO PUSH2 0x462 JUMPI PUSH1 0x0 DUP1 REVERT JUMPDEST DUP3 CALLDATALOAD SWAP2 POP PUSH1 0x20 DUP4 ADD CALLDATALOAD PUSH8 0xFFFFFFFFFFFFFFFF DUP2 GT ISZERO PUSH2 0x480 JUMPI PUSH1 0x0 DUP1 REVERT JUMPDEST PUSH2 0x3EC DUP6 DUP3 DUP7 ADD PUSH2 0x305 JUMP JUMPDEST PUSH1 0x1 DUP2 DUP2 SHR SWAP1 DUP3 AND DUP1 PUSH2 0x4A0 JUMPI PUSH1 0x7F DUP3 AND SWAP2 POP JUMPDEST PUSH1 0x20 DUP3 LT DUP2 SUB PUSH2 0x4C0 JUMPI PUSH4 0x4E487B71 PUSH1 0xE0 SHL PUSH1 0x0 MSTORE PUSH1 0x22 PUSH1 0x4 MSTORE PUSH1 0x24 PUSH1 0x0 REVERT JUMPDEST POP SWAP2 SWAP1 POP JUMP JUMPDEST PUSH1 0x1F DUP3 GT ISZERO PUSH2 0x512 JUMPI PUSH1 0x0 DUP2 PUSH1 0x0 MSTORE PUSH1 0x20 PUSH1 0x0 KECCAK256 PUSH1 0x1F DUP6 ADD PUSH1 0x5 SHR DUP2 ADD PUSH1 0x20 DUP7 LT ISZERO PUSH2 0x4EF JUMPI POP DUP1 JUMPDEST PUSH1 0x1F DUP6 ADD PUSH1 0x5 SHR DUP3 ADD SWAP2 POP JUMPDEST DUP2 DUP2 LT ISZERO PUSH2 0x50E JUMPI DUP3 DUP2 SSTORE PUSH1 0x1 ADD PUSH2 0x4FB JUMP JUMPDEST POP POP POP JUMPDEST POP POP POP JUMP JUMPDEST DUP2 MLOAD PUSH8 0xFFFFFFFFFFFFFFFF DUP2 GT ISZERO PUSH2 0x531 JUMPI PUSH2 0x531 PUSH2 0x2EF JUMP JUMPDEST PUSH2 0x545 DUP2 PUSH2 0x53F DUP5 SLOAD PUSH2 0x48C JUMP JUMPDEST DUP5 PUSH2 0x4C6 JUMP JUMPDEST PUSH1 0x20 DUP1 PUSH1 0x1F DUP4 GT PUSH1 0x1 DUP2 EQ PUSH2 0x57A JUMPI PUSH1 0x0 DUP5 ISZERO PUSH2 0x562 JUMPI POP DUP6 DUP4 ADD MLOAD JUMPDEST PUSH1 0x0 NOT PUSH1 0x3 DUP7 SWAP1 SHL SHR NOT AND PUSH1 0x1 DUP6 SWAP1 SHL OR DUP6 SSTORE PUSH2 0x50E JUMP JUMPDEST PUSH1 0x0 DUP6 DUP2 MSTORE PUSH1 0x20 DUP2 KECCAK256 PUSH1 0x1F NOT DUP7 AND SWAP2 JUMPDEST DUP3 DUP2 LT ISZERO PUSH2 0x5A9 JUMPI DUP9 DUP7 ADD MLOAD DUP3 SSTORE SWAP5 DUP5 ADD SWAP5 PUSH1 0x1 SWAP1 SWAP2 ADD SWAP1 DUP5 ADD PUSH2 0x58A JUMP JUMPDEST POP DUP6 DUP3 LT ISZERO PUSH2 0x5C7 JUMPI DUP8 DUP6 ADD MLOAD PUSH1 0x0 NOT PUSH1 0x3 DUP9 SWAP1 SHL PUSH1 0xF8 AND SHR NOT AND DUP2 SSTORE JUMPDEST POP POP POP POP POP PUSH1 0x1 SWAP1 DUP2 SHL ADD SWAP1 SSTORE POP JUMP JUMPDEST PUSH1 0x40 DUP2 MSTORE PUSH1 0x0 PUSH2 0x5EA PUSH1 0x40 DUP4 ADD DUP6 PUSH2 0x3F6 JUMP JUMPDEST DUP3 DUP2 SUB PUSH1 0x20 DUP5 ADD MSTORE PUSH2 0x5FC DUP2 DUP6 PUSH2 0x3F6 JUMP JUMPDEST SWAP6 SWAP5 POP POP POP POP POP JUMP INVALID LOG2 PUSH5 0x6970667358 0x22 SLT KECCAK256 STATICCALL 0xE6 0x21 0x1F SWAP7 0xE1 0xFC 0xB2 CREATE2 0x4E 0xD8 LOG4 0xD5 DUP9 SIGNEXTEND 0xB0 BALANCE CALLDATACOPY 0xEB PC 0xBB DUP8 0xD0 0xB6 0x27 0x25 0x25 JUMPI 0xC9 0x28 RETURNDATACOPY PUSH2 0x6473 PUSH16 0x6C634300081600330000000000000000 "},"methodIdentifiers":{"encryptedSigma()":"fb76c113","encryptedSortedBallots()":"a6545aa5","getSubmittedBallotCID(address)":"04e37146","publishResult(bytes,bytes)":"78b23efc","submitEncryptedBallot(bytes32,bytes)":"e67b2343","submittedBallots(address)":"79a12759"}}}}}