{
  "_format": "hh-sol-artifact-1",
  "contractName": "ManagementContract_Base",
  "sourceName": "contracts/ManagementContract_Base.sol",
  "abi": [
    {
      "inputs": [],
      "stateMutability": "nonpayable",
      "type": "constructor"
    },
    {
      "inputs": [
        {
          "internalType": "address",
          "name": "owner",
          "type": "address"
        }
      ],
      "name": "OwnableInvalidOwner",
      "type": "error"
    },
    {
      "inputs": [
        {
          "internalType": "address",
          "name": "account",
          "type": "address"
        }
      ],
      "name": "OwnableUnauthorizedAccount",
      "type": "error"
    },
    {
      "anonymous": false,
      "inputs": [
        {
          "indexed": true,
          "internalType": "address",
          "name": "previousOwner",
          "type": "address"
        },
        {
          "indexed": true,
          "internalType": "address",
          "name": "newOwner",
          "type": "address"
        }
      ],
      "name": "OwnershipTransferred",
      "type": "event"
    },
    {
      "anonymous": false,
      "inputs": [
        {
          "indexed": true,
          "internalType": "address",
          "name": "voterAddress",
          "type": "address"
        },
        {
          "indexed": false,
          "internalType": "uint256",
          "name": "voterId",
          "type": "uint256"
        }
      ],
      "name": "Registered",
      "type": "event"
    },
    {
      "anonymous": false,
      "inputs": [
        {
          "indexed": false,
          "internalType": "uint256",
          "name": "totalVoters",
          "type": "uint256"
        }
      ],
      "name": "RegistrationClosed",
      "type": "event"
    },
    {
      "anonymous": false,
      "inputs": [
        {
          "indexed": true,
          "internalType": "address",
          "name": "authorizedAddress",
          "type": "address"
        }
      ],
      "name": "ResultViewerGranted",
      "type": "event"
    },
    {
      "inputs": [],
      "name": "closeRegistration",
      "outputs": [],
      "stateMutability": "nonpayable",
      "type": "function"
    },
    {
      "inputs": [],
      "name": "getRegisteredVotersCount",
      "outputs": [
        {
          "internalType": "uint256",
          "name": "",
          "type": "uint256"
        }
      ],
      "stateMutability": "view",
      "type": "function"
    },
    {
      "inputs": [
        {
          "internalType": "address",
          "name": "auth",
          "type": "address"
        }
      ],
      "name": "grantResultViewer",
      "outputs": [],
      "stateMutability": "nonpayable",
      "type": "function"
    },
    {
      "inputs": [],
      "name": "isRegistrationOpen",
      "outputs": [
        {
          "internalType": "bool",
          "name": "",
          "type": "bool"
        }
      ],
      "stateMutability": "view",
      "type": "function"
    },
    {
      "inputs": [
        {
          "internalType": "address",
          "name": "",
          "type": "address"
        }
      ],
      "name": "isVoterRegistered",
      "outputs": [
        {
          "internalType": "bool",
          "name": "",
          "type": "bool"
        }
      ],
      "stateMutability": "view",
      "type": "function"
    },
    {
      "inputs": [],
      "name": "owner",
      "outputs": [
        {
          "internalType": "address",
          "name": "",
          "type": "address"
        }
      ],
      "stateMutability": "view",
      "type": "function"
    },
    {
      "inputs": [
        {
          "internalType": "bytes",
          "name": "ringSig",
          "type": "bytes"
        },
        {
          "internalType": "bytes",
          "name": "pkSet",
          "type": "bytes"
        }
      ],
      "name": "register",
      "outputs": [],
      "stateMutability": "nonpayable",
      "type": "function"
    },
    {
      "inputs": [
        {
          "internalType": "uint256",
          "name": "",
          "type": "uint256"
        }
      ],
      "name": "registeredVoters",
      "outputs": [
        {
          "internalType": "address",
          "name": "",
          "type": "address"
        }
      ],
      "stateMutability": "view",
      "type": "function"
    },
    {
      "inputs": [],
      "name": "registrationClosed",
      "outputs": [
        {
          "internalType": "bool",
          "name": "",
          "type": "bool"
        }
      ],
      "stateMutability": "view",
      "type": "function"
    },
    {
      "inputs": [],
      "name": "renounceOwnership",
      "outputs": [],
      "stateMutability": "nonpayable",
      "type": "function"
    },
    {
      "inputs": [
        {
          "internalType": "address",
          "name": "",
          "type": "address"
        }
      ],
      "name": "resultViewers",
      "outputs": [
        {
          "internalType": "bool",
          "name": "",
          "type": "bool"
        }
      ],
      "stateMutability": "view",
      "type": "function"
    },
    {
      "inputs": [
        {
          "internalType": "address",
          "name": "newOwner",
          "type": "address"
        }
      ],
      "name": "transferOwnership",
      "outputs": [],
      "stateMutability": "nonpayable",
      "type": "function"
    },
    {
      "inputs": [
        {
          "internalType": "uint256",
          "name": "",
          "type": "uint256"
        }
      ],
      "name": "voterIdToAddress",
      "outputs": [
        {
          "internalType": "address",
          "name": "",
          "type": "address"
        }
      ],
      "stateMutability": "view",
      "type": "function"
    }
  ],
  "bytecode": "0x60806040526004805460ff19169055600160055534801561001f57600080fd5b50338061004657604051631e4fbdf760e01b81526000600482015260240160405180910390fd5b61004f81610055565b506100a5565b600080546001600160a01b038381166001600160a01b0319831681178455604051919092169283917f8be0079c531659141344cd1fd0a4f28419497f9722a3daafe3b4186f6b6457e09190a35050565b6107c1806100b46000396000f3fe608060405234801561001057600080fd5b50600436106100cf5760003560e01c8063a3747fef1161008c578063eb2119db11610066578063eb2119db14610183578063f17cbb6f146101a6578063f248c6bd146101c9578063f2fde38b146101f257600080fd5b8063a3747fef1461014c578063a91081a11461015f578063d52e953c1461017057600080fd5b80632436e06b146100d4578063715018a6146101045780637ab2af2b1461010e5780637dc673bc146101265780638da5cb5b1461012e5780639f9a093c1461013f575b600080fd5b6100e76100e2366004610614565b610205565b6040516001600160a01b0390911681526020015b60405180910390f35b61010c61022f565b005b60045460ff16155b60405190151581526020016100fb565b61010c610243565b6000546001600160a01b03166100e7565b6004546101169060ff1681565b61010c61015a3660046106d0565b6102e8565b6003546040519081526020016100fb565b61010c61017e366004610734565b6104af565b610116610191366004610734565b60016020526000908152604090205460ff1681565b6101166101b4366004610734565b60066020526000908152604090205460ff1681565b6100e76101d7366004610614565b6002602052600090815260409020546001600160a01b031681565b61010c610200366004610734565b610559565b6003818154811061021557600080fd5b6000918252602090912001546001600160a01b0316905081565b610237610597565b61024160006105c4565b565b61024b610597565b60045460ff161561029c5760405162461bcd60e51b8152602060048201526016602482015275149959da5cdd1c985d1a5bdb881a5cc818db1bdcd95960521b60448201526064015b60405180910390fd5b6004805460ff191660011790556003546040517f383b6ce38b867405b4f42fa404692e07842868068badd063c9bfeb0e7f263f62916102de9190815260200190565b60405180910390a1565b60045460ff16156103345760405162461bcd60e51b8152602060048201526016602482015275149959da5cdd1c985d1a5bdb881a5cc818db1bdcd95960521b6044820152606401610293565b6000546001600160a01b0316330361038e5760405162461bcd60e51b815260206004820181905260248201527f4f776e65722063616e6e6f74207265676973746572206173206120766f7465726044820152606401610293565b3360009081526001602052604090205460ff16156103ee5760405162461bcd60e51b815260206004820152601860248201527f566f74657220616c7265616479207265676973746572656400000000000000006044820152606401610293565b336000818152600160208181526040808420805460ff1916841790556005805485526002835281852080546001600160a01b031990811688179091556003805495860181559095527fc2575a0e9e593c00f959f8c92f12db2869c3395a3b0502d05e2516446f71f85b90930180549094168517909355905491519182527f6f3bf3fa84e4763a43b3d23f9d79be242d6d5c834941ff4c1111b67469e1150c910160405180910390a2600580549060006104a683610764565b91905055505050565b6104b7610597565b6001600160a01b03811661050d5760405162461bcd60e51b815260206004820152601c60248201527f43616e6e6f74206772616e7420746f207a65726f2061646472657373000000006044820152606401610293565b6001600160a01b038116600081815260066020526040808220805460ff19166001179055517f9749a8e49d1b73f37a892e82321de26a854d2c9c03ae0b6a85cb2ed280e637849190a250565b610561610597565b6001600160a01b03811661058b57604051631e4fbdf760e01b815260006004820152602401610293565b610594816105c4565b50565b6000546001600160a01b031633146102415760405163118cdaa760e01b8152336004820152602401610293565b600080546001600160a01b038381166001600160a01b0319831681178455604051919092169283917f8be0079c531659141344cd1fd0a4f28419497f9722a3daafe3b4186f6b6457e09190a35050565b60006020828403121561062657600080fd5b5035919050565b634e487b7160e01b600052604160045260246000fd5b600082601f83011261065457600080fd5b813567ffffffffffffffff8082111561066f5761066f61062d565b604051601f8301601f19908116603f011681019082821181831017156106975761069761062d565b816040528381528660208588010111156106b057600080fd5b836020870160208301376000602085830101528094505050505092915050565b600080604083850312156106e357600080fd5b823567ffffffffffffffff808211156106fb57600080fd5b61070786838701610643565b9350602085013591508082111561071d57600080fd5b5061072a85828601610643565b9150509250929050565b60006020828403121561074657600080fd5b81356001600160a01b038116811461075d57600080fd5b9392505050565b60006001820161078457634e487b7160e01b600052601160045260246000fd5b506001019056fea2646970667358221220575e4f884bc72e172321179241c4e6ef1b13125ecfbe7c99530c7e43c504a2da64736f6c63430008160033",
  "linkReferences": {},
  "deployedLinkReferences": {}
}