{
  "_format": "hh-sol-artifact-1",
  "contractName": "CountingContract",
  "sourceName": "contracts/CountingContract.sol",
  "abi": [
    {
      "anonymous": false,
      "inputs": [
        {
          "indexed": true,
          "internalType": "address",
          "name": "voterAddress",
          "type": "address"
        },
        {
          "indexed": false,
          "internalType": "bytes32",
          "name": "ballotCID",
          "type": "bytes32"
        }
      ],
      "name": "BallotAccepted",
      "type": "event"
    },
    {
      "anonymous": false,
      "inputs": [
        {
          "indexed": false,
          "internalType": "bytes",
          "name": "encSigma",
          "type": "bytes"
        },
        {
          "indexed": false,
          "internalType": "bytes",
          "name": "encSortedList",
          "type": "bytes"
        }
      ],
      "name": "ResultPublished",
      "type": "event"
    },
    {
      "inputs": [],
      "name": "encryptedSigma",
      "outputs": [
        {
          "internalType": "bytes",
          "name": "",
          "type": "bytes"
        }
      ],
      "stateMutability": "view",
      "type": "function"
    },
    {
      "inputs": [],
      "name": "encryptedSortedBallots",
      "outputs": [
        {
          "internalType": "bytes",
          "name": "",
          "type": "bytes"
        }
      ],
      "stateMutability": "view",
      "type": "function"
    },
    {
      "inputs": [
        {
          "internalType": "address",
          "name": "voterAddress",
          "type": "address"
        }
      ],
      "name": "getSubmittedBallotCID",
      "outputs": [
        {
          "internalType": "bytes32",
          "name": "",
          "type": "bytes32"
        }
      ],
      "stateMutability": "view",
      "type": "function"
    },
    {
      "inputs": [
        {
          "internalType": "bytes",
          "name": "encSigma_",
          "type": "bytes"
        },
        {
          "internalType": "bytes",
          "name": "encSorted_",
          "type": "bytes"
        }
      ],
      "name": "publishResult",
      "outputs": [],
      "stateMutability": "nonpayable",
      "type": "function"
    },
    {
      "inputs": [
        {
          "internalType": "bytes32",
          "name": "cid",
          "type": "bytes32"
        },
        {
          "internalType": "bytes",
          "name": "veRangeProof",
          "type": "bytes"
        }
      ],
      "name": "submitEncryptedBallot",
      "outputs": [],
      "stateMutability": "nonpayable",
      "type": "function"
    },
    {
      "inputs": [
        {
          "internalType": "address",
          "name": "",
          "type": "address"
        }
      ],
      "name": "submittedBallots",
      "outputs": [
        {
          "internalType": "bytes32",
          "name": "",
          "type": "bytes32"
        }
      ],
      "stateMutability": "view",
      "type": "function"
    }
  ],
  "bytecode": "0x608060405234801561001057600080fd5b5061063b806100206000396000f3fe608060405234801561001057600080fd5b50600436106100625760003560e01c806304e371461461006757806378b23efc146100a357806379a12759146100b8578063a6545aa5146100d8578063e67b2343146100ed578063fb76c11314610100575b600080fd5b6100906100753660046102bf565b6001600160a01b031660009081526020819052604090205490565b6040519081526020015b60405180910390f35b6100b66100b1366004610392565b610108565b005b6100906100c63660046102bf565b60006020819052908152604090205481565b6100e061015f565b60405161009a919061043c565b6100b66100fb36600461044f565b6101ed565b6100e06102b2565b60016101148382610517565b5060026101218282610517565b507f4828df71818c7d1ccc17dfb2785d0b90baf4a253d4a42ccd2ad2bcd31397d4c182826040516101539291906105d7565b60405180910390a15050565b6002805461016c9061048c565b80601f01602080910402602001604051908101604052809291908181526020018280546101989061048c565b80156101e55780601f106101ba576101008083540402835291602001916101e5565b820191906000526020600020905b8154815290600101906020018083116101c857829003601f168201915b505050505081565b6101fb565b60405180910390fd5b336000908152602081905260409020541561026a5760405162461bcd60e51b815260206004820152602960248201527f42616c6c6f7420616c7265616479207375626d697474656420666f722074686960448201526873206164647265737360b81b60648201526084016101f2565b336000818152602081815260409182902085905590518481527f8fe82f26861a128b86619768301e0fa25aaf21e164853ad0eb748695653a60c5910160405180910390a25050565b6001805461016c9061048c565b6000602082840312156102d157600080fd5b81356001600160a01b03811681146102e857600080fd5b9392505050565b634e487b7160e01b600052604160045260246000fd5b600082601f83011261031657600080fd5b813567ffffffffffffffff80821115610331576103316102ef565b604051601f8301601f19908116603f01168101908282118183101715610359576103596102ef565b8160405283815286602085880101111561037257600080fd5b836020870160208301376000602085830101528094505050505092915050565b600080604083850312156103a557600080fd5b823567ffffffffffffffff808211156103bd57600080fd5b6103c986838701610305565b935060208501359150808211156103df57600080fd5b506103ec85828601610305565b9150509250929050565b6000815180845260005b8181101561041c57602081850181015186830182015201610400565b506000602082860101526020601f19601f83011685010191505092915050565b6020815260006102e860208301846103f6565b6000806040838503121561046257600080fd5b82359150602083013567ffffffffffffffff81111561048057600080fd5b6103ec85828601610305565b600181811c908216806104a057607f821691505b6020821081036104c057634e487b7160e01b600052602260045260246000fd5b50919050565b601f821115610512576000816000526020600020601f850160051c810160208610156104ef5750805b601f850160051c820191505b8181101561050e578281556001016104fb565b5050505b505050565b815167ffffffffffffffff811115610531576105316102ef565b6105458161053f845461048c565b846104c6565b602080601f83116001811461057a57600084156105625750858301515b600019600386901b1c1916600185901b17855561050e565b600085815260208120601f198616915b828110156105a95788860151825594840194600190910190840161058a565b50858210156105c75787850151600019600388901b60f8161c191681555b5050505050600190811b01905550565b6040815260006105ea60408301856103f6565b82810360208401526105fc81856103f6565b9594505050505056fea2646970667358221220fae6211f96e1fcb2f54ed8a4d5880bb03137eb58bb87d0b627252557c9283e6164736f6c63430008160033",
  "linkReferences": {},
  "deployedLinkReferences": {}
}