{
  "_format": "hh-sol-artifact-1",
  "contractName": "CountingContract_Base",
  "sourceName": "contracts/CountingContract_Base.sol",
  "abi": [
    {
      "inputs": [
        {
          "internalType": "address",
          "name": "_managementContractAddress",
          "type": "address"
        }
      ],
      "stateMutability": "nonpayable",
      "type": "constructor"
    },
    {
      "inputs": [
        {
          "internalType": "address",
          "name": "owner",
          "type": "address"
        }
      ],
      "name": "OwnableInvalidOwner",
      "type": "error"
    },
    {
      "inputs": [
        {
          "internalType": "address",
          "name": "account",
          "type": "address"
        }
      ],
      "name": "OwnableUnauthorizedAccount",
      "type": "error"
    },
    {
      "anonymous": false,
      "inputs": [
        {
          "indexed": true,
          "internalType": "address",
          "name": "previousOwner",
          "type": "address"
        },
        {
          "indexed": true,
          "internalType": "address",
          "name": "newOwner",
          "type": "address"
        }
      ],
      "name": "OwnershipTransferred",
      "type": "event"
    },
    {
      "anonymous": false,
      "inputs": [
        {
          "indexed": true,
          "internalType": "address",
          "name": "voter",
          "type": "address"
        },
        {
          "indexed": false,
          "internalType": "uint256",
          "name": "candidateId",
          "type": "uint256"
        }
      ],
      "name": "VoteCast",
      "type": "event"
    },
    {
      "anonymous": false,
      "inputs": [
        {
          "indexed": false,
          "internalType": "uint256",
          "name": "timestamp",
          "type": "uint256"
        }
      ],
      "name": "VotingClosed",
      "type": "event"
    },
    {
      "anonymous": false,
      "inputs": [
        {
          "indexed": false,
          "internalType": "uint256",
          "name": "timestamp",
          "type": "uint256"
        }
      ],
      "name": "VotingOpened",
      "type": "event"
    },
    {
      "inputs": [],
      "name": "closeVoting",
      "outputs": [],
      "stateMutability": "nonpayable",
      "type": "function"
    },
    {
      "inputs": [
        {
          "internalType": "address",
          "name": "voterAddress",
          "type": "address"
        }
      ],
      "name": "getHasVoted",
      "outputs": [
        {
          "internalType": "bool",
          "name": "",
          "type": "bool"
        }
      ],
      "stateMutability": "view",
      "type": "function"
    },
    {
      "inputs": [
        {
          "internalType": "uint256",
          "name": "candidateId",
          "type": "uint256"
        }
      ],
      "name": "getVotesForCandidate",
      "outputs": [
        {
          "internalType": "uint256",
          "name": "",
          "type": "uint256"
        }
      ],
      "stateMutability": "view",
      "type": "function"
    },
    {
      "inputs": [
        {
          "internalType": "address",
          "name": "",
          "type": "address"
        }
      ],
      "name": "hasVoted",
      "outputs": [
        {
          "internalType": "bool",
          "name": "",
          "type": "bool"
        }
      ],
      "stateMutability": "view",
      "type": "function"
    },
    {
      "inputs": [],
      "name": "isVotingOpen",
      "outputs": [
        {
          "internalType": "bool",
          "name": "",
          "type": "bool"
        }
      ],
      "stateMutability": "view",
      "type": "function"
    },
    {
      "inputs": [],
      "name": "managementContract",
      "outputs": [
        {
          "internalType": "contract IManagementContract_Base",
          "name": "",
          "type": "address"
        }
      ],
      "stateMutability": "view",
      "type": "function"
    },
    {
      "inputs": [],
      "name": "openVoting",
      "outputs": [],
      "stateMutability": "nonpayable",
      "type": "function"
    },
    {
      "inputs": [],
      "name": "owner",
      "outputs": [
        {
          "internalType": "address",
          "name": "",
          "type": "address"
        }
      ],
      "stateMutability": "view",
      "type": "function"
    },
    {
      "inputs": [],
      "name": "renounceOwnership",
      "outputs": [],
      "stateMutability": "nonpayable",
      "type": "function"
    },
    {
      "inputs": [
        {
          "internalType": "uint256",
          "name": "candidateId",
          "type": "uint256"
        }
      ],
      "name": "submitVote",
      "outputs": [],
      "stateMutability": "nonpayable",
      "type": "function"
    },
    {
      "inputs": [],
      "name": "totalVotesCast",
      "outputs": [
        {
          "internalType": "uint256",
          "name": "",
          "type": "uint256"
        }
      ],
      "stateMutability": "view",
      "type": "function"
    },
    {
      "inputs": [
        {
          "internalType": "address",
          "name": "newOwner",
          "type": "address"
        }
      ],
      "name": "transferOwnership",
      "outputs": [],
      "stateMutability": "nonpayable",
      "type": "function"
    },
    {
      "inputs": [
        {
          "internalType": "uint256",
          "name": "",
          "type": "uint256"
        }
      ],
      "name": "votesPerCandidate",
      "outputs": [
        {
          "internalType": "uint256",
          "name": "",
          "type": "uint256"
        }
      ],
      "stateMutability": "view",
      "type": "function"
    },
    {
      "inputs": [],
      "name": "votingOpen",
      "outputs": [
        {
          "internalType": "bool",
          "name": "",
          "type": "bool"
        }
      ],
      "stateMutability": "view",
      "type": "function"
    }
  ],
  "bytecode": "0x60806040526001805460ff60a01b1916905534801561001d57600080fd5b5060405161096738038061096783398101604081905261003c91610144565b338061006357604051631e4fbdf760e01b8152600060048201526024015b60405180910390fd5b61006c816100f4565b506001600160a01b0381166100cf5760405162461bcd60e51b815260206004820152602360248201527f496e76616c6964206d616e6167656d656e7420636f6e7472616374206164647260448201526265737360e81b606482015260840161005a565b600180546001600160a01b0319166001600160a01b0392909216919091179055610174565b600080546001600160a01b038381166001600160a01b0319831681178455604051919092169283917f8be0079c531659141344cd1fd0a4f28419497f9722a3daafe3b4186f6b6457e09190a35050565b60006020828403121561015657600080fd5b81516001600160a01b038116811461016d57600080fd5b9392505050565b6107e4806101836000396000f3fe608060405234801561001057600080fd5b50600436106100ea5760003560e01c8063a95824b41161008c578063c631b29211610066578063c631b292146101fb578063eb92e5a014610203578063f2fde38b14610223578063fa7f1bae1461023657600080fd5b8063a95824b4146101cc578063affc0670146101e0578063b3e5cc4a146101e857600080fd5b80636de8bcb9116100c85780636de8bcb91461016a578063715018a6146101965780637de418d51461019e5780638da5cb5b146101a757600080fd5b806309eef43e146100ef5780632844328f14610127578063530178721461013c575b600080fd5b6101126100fd36600461071c565b60036020526000908152604090205460ff1681565b60405190151581526020015b60405180910390f35b61013a61013536600461074c565b610248565b005b61015c61014a36600461074c565b60009081526002602052604090205490565b60405190815260200161011e565b61011261017836600461071c565b6001600160a01b031660009081526003602052604090205460ff1690565b61013a610427565b61015c60045481565b6000546001600160a01b03165b6040516001600160a01b03909116815260200161011e565b60015461011290600160a01b900460ff1681565b61013a61043b565b6001546101b4906001600160a01b031681565b61013a6105ce565b61015c61021136600461074c565b60026020526000908152604090205481565b61013a61023136600461071c565b610661565b600154600160a01b900460ff16610112565b600154600160a01b900460ff1661029b5760405162461bcd60e51b81526020600482015260126024820152712b37ba34b7339034b9903737ba1037b832b760711b60448201526064015b60405180910390fd5b60015460405163eb2119db60e01b81523360048201526001600160a01b039091169063eb2119db90602401602060405180830381865afa1580156102e3573d6000803e3d6000fd5b505050506040513d601f19601f820116820180604052508101906103079190610765565b61034a5760405162461bcd60e51b8152602060048201526014602482015273159bdd195c881b9bdd081c9959da5cdd195c995960621b6044820152606401610292565b3360009081526003602052604090205460ff16156103a35760405162461bcd60e51b8152602060048201526016602482015275165bdd481a185d9948185b1c9958591e481d9bdd195960521b6044820152606401610292565b60008181526002602052604081208054916103bd83610787565b9091555050336000908152600360205260408120805460ff1916600117905560048054916103ea83610787565b909155505060405181815233907fa36cc2bebb74db33e9f88110a07ef56e1b31b24b4c4f51b54b1664266e29f45b9060200160405180910390a250565b61042f61069f565b61043960006106cc565b565b61044361069f565b600160009054906101000a90046001600160a01b03166001600160a01b0316639f9a093c6040518163ffffffff1660e01b8152600401602060405180830381865afa158015610496573d6000803e3d6000fd5b505050506040513d601f19601f820116820180604052508101906104ba9190610765565b61052c5760405162461bcd60e51b815260206004820152603760248201527f526567697374726174696f6e20696e204d616e6167656d656e74436f6e74726160448201527f6374206d75737420626520636c6f7365642066697273740000000000000000006064820152608401610292565b600154600160a01b900460ff161561057f5760405162461bcd60e51b81526020600482015260166024820152752b37ba34b7339034b99030b63932b0b23c9037b832b760511b6044820152606401610292565b6001805460ff60a01b1916600160a01b1790556040517fe0a358d4a766346f1ece85d22e2197435d610d9638874a0fd6746e58a1b1f58a906105c49042815260200190565b60405180910390a1565b6105d661069f565b600154600160a01b900460ff166106245760405162461bcd60e51b81526020600482015260126024820152712b37ba34b7339034b9903737ba1037b832b760711b6044820152606401610292565b6001805460ff60a01b191690556040514281527f8e9b46a70b3967bc9ea56ca61732c363a191fac88ae3ba011f4e030711c90117906020016105c4565b61066961069f565b6001600160a01b03811661069357604051631e4fbdf760e01b815260006004820152602401610292565b61069c816106cc565b50565b6000546001600160a01b031633146104395760405163118cdaa760e01b8152336004820152602401610292565b600080546001600160a01b038381166001600160a01b0319831681178455604051919092169283917f8be0079c531659141344cd1fd0a4f28419497f9722a3daafe3b4186f6b6457e09190a35050565b60006020828403121561072e57600080fd5b81356001600160a01b038116811461074557600080fd5b9392505050565b60006020828403121561075e57600080fd5b5035919050565b60006020828403121561077757600080fd5b8151801515811461074557600080fd5b6000600182016107a757634e487b7160e01b600052601160045260246000fd5b506001019056fea2646970667358221220cdaf29f7e126423ffb0f645cb1a208fd2deaf5ecddb6d24fd1380bd4a162844064736f6c63430008160033",
  "linkReferences": {},
  "deployedLinkReferences": {}
}