{
  "_format": "hh-sol-artifact-1",
  "contractName": "ManagementContract",
  "sourceName": "contracts/ManagementContract.sol",
  "abi": [
    {
      "inputs": [],
      "stateMutability": "nonpayable",
      "type": "constructor"
    },
    {
      "inputs": [
        {
          "internalType": "address",
          "name": "owner",
          "type": "address"
        }
      ],
      "name": "OwnableInvalidOwner",
      "type": "error"
    },
    {
      "inputs": [
        {
          "internalType": "address",
          "name": "account",
          "type": "address"
        }
      ],
      "name": "OwnableUnauthorizedAccount",
      "type": "error"
    },
    {
      "anonymous": false,
      "inputs": [
        {
          "indexed": false,
          "internalType": "string",
          "name": "taskSpecCID",
          "type": "string"
        },
        {
          "indexed": false,
          "internalType": "uint256",
          "name": "voters",
          "type": "uint256"
        },
        {
          "indexed": false,
          "internalType": "uint256",
          "name": "candidates",
          "type": "uint256"
        }
      ],
      "name": "MPCDispatched",
      "type": "event"
    },
    {
      "anonymous": false,
      "inputs": [
        {
          "indexed": true,
          "internalType": "address",
          "name": "previousOwner",
          "type": "address"
        },
        {
          "indexed": true,
          "internalType": "address",
          "name": "newOwner",
          "type": "address"
        }
      ],
      "name": "OwnershipTransferred",
      "type": "event"
    },
    {
      "anonymous": false,
      "inputs": [
        {
          "indexed": true,
          "internalType": "address",
          "name": "voterAddress",
          "type": "address"
        },
        {
          "indexed": false,
          "internalType": "uint256",
          "name": "voterId",
          "type": "uint256"
        }
      ],
      "name": "Registered",
      "type": "event"
    },
    {
      "anonymous": false,
      "inputs": [
        {
          "indexed": false,
          "internalType": "uint256",
          "name": "totalVoters",
          "type": "uint256"
        }
      ],
      "name": "RegistrationClosed",
      "type": "event"
    },
    {
      "anonymous": false,
      "inputs": [
        {
          "indexed": true,
          "internalType": "address",
          "name": "authorizedAddress",
          "type": "address"
        }
      ],
      "name": "ResultViewerGranted",
      "type": "event"
    },
    {
      "inputs": [],
      "name": "closeRegistration",
      "outputs": [],
      "stateMutability": "nonpayable",
      "type": "function"
    },
    {
      "inputs": [
        {
          "internalType": "uint256",
          "name": "voters",
          "type": "uint256"
        },
        {
          "internalType": "uint256",
          "name": "candidates",
          "type": "uint256"
        }
      ],
      "name": "dispatchMPC",
      "outputs": [],
      "stateMutability": "nonpayable",
      "type": "function"
    },
    {
      "inputs": [],
      "name": "getRegisteredVotersCount",
      "outputs": [
        {
          "internalType": "uint256",
          "name": "",
          "type": "uint256"
        }
      ],
      "stateMutability": "view",
      "type": "function"
    },
    {
      "inputs": [
        {
          "internalType": "address",
          "name": "auth",
          "type": "address"
        }
      ],
      "name": "grantResultViewer",
      "outputs": [],
      "stateMutability": "nonpayable",
      "type": "function"
    },
    {
      "inputs": [],
      "name": "isRegistrationOpen",
      "outputs": [
        {
          "internalType": "bool",
          "name": "",
          "type": "bool"
        }
      ],
      "stateMutability": "view",
      "type": "function"
    },
    {
      "inputs": [
        {
          "internalType": "address",
          "name": "",
          "type": "address"
        }
      ],
      "name": "isVoterRegistered",
      "outputs": [
        {
          "internalType": "bool",
          "name": "",
          "type": "bool"
        }
      ],
      "stateMutability": "view",
      "type": "function"
    },
    {
      "inputs": [],
      "name": "owner",
      "outputs": [
        {
          "internalType": "address",
          "name": "",
          "type": "address"
        }
      ],
      "stateMutability": "view",
      "type": "function"
    },
    {
      "inputs": [
        {
          "internalType": "bytes",
          "name": "ringSig",
          "type": "bytes"
        },
        {
          "internalType": "bytes",
          "name": "pkSet",
          "type": "bytes"
        }
      ],
      "name": "register",
      "outputs": [],
      "stateMutability": "nonpayable",
      "type": "function"
    },
    {
      "inputs": [
        {
          "internalType": "uint256",
          "name": "",
          "type": "uint256"
        }
      ],
      "name": "registeredVoters",
      "outputs": [
        {
          "internalType": "address",
          "name": "",
          "type": "address"
        }
      ],
      "stateMutability": "view",
      "type": "function"
    },
    {
      "inputs": [],
      "name": "registrationClosed",
      "outputs": [
        {
          "internalType": "bool",
          "name": "",
          "type": "bool"
        }
      ],
      "stateMutability": "view",
      "type": "function"
    },
    {
      "inputs": [],
      "name": "renounceOwnership",
      "outputs": [],
      "stateMutability": "nonpayable",
      "type": "function"
    },
    {
      "inputs": [
        {
          "internalType": "address",
          "name": "",
          "type": "address"
        }
      ],
      "name": "resultViewers",
      "outputs": [
        {
          "internalType": "bool",
          "name": "",
          "type": "bool"
        }
      ],
      "stateMutability": "view",
      "type": "function"
    },
    {
      "inputs": [],
      "name": "taskSpecCID",
      "outputs": [
        {
          "internalType": "string",
          "name": "",
          "type": "string"
        }
      ],
      "stateMutability": "view",
      "type": "function"
    },
    {
      "inputs": [
        {
          "internalType": "address",
          "name": "newOwner",
          "type": "address"
        }
      ],
      "name": "transferOwnership",
      "outputs": [],
      "stateMutability": "nonpayable",
      "type": "function"
    },
    {
      "inputs": [
        {
          "internalType": "uint256",
          "name": "",
          "type": "uint256"
        }
      ],
      "name": "voterIdToAddress",
      "outputs": [
        {
          "internalType": "address",
          "name": "",
          "type": "address"
        }
      ],
      "stateMutability": "view",
      "type": "function"
    }
  ],
  "bytecode": "0x60806040526004805460ff19169055600160055534801561001f57600080fd5b50338061004657604051631e4fbdf760e01b81526000600482015260240160405180910390fd5b61004f81610055565b506100a5565b600080546001600160a01b038381166001600160a01b0319831681178455604051919092169283917f8be0079c531659141344cd1fd0a4f28419497f9722a3daafe3b4186f6b6457e09190a35050565b610b7b806100b46000396000f3fe608060405234801561001057600080fd5b50600436106100f55760003560e01c8063a3747fef11610097578063eb2119db11610066578063eb2119db146101d1578063f17cbb6f146101f4578063f248c6bd14610217578063f2fde38b1461024057600080fd5b8063a3747fef14610185578063a91081a114610198578063d52e953c146101a9578063e7d57e65146101bc57600080fd5b80637ab2af2b116100d35780637ab2af2b146101475780637dc673bc1461015f5780638da5cb5b146101675780639f9a093c1461017857600080fd5b80632436e06b146100fa57806324504c811461012a578063715018a61461013f575b600080fd5b61010d610108366004610757565b610253565b6040516001600160a01b0390911681526020015b60405180910390f35b61013d610138366004610770565b61027d565b005b61013d610343565b60045460ff16155b6040519015158152602001610121565b61013d610357565b6000546001600160a01b031661010d565b60045461014f9060ff1681565b61013d610193366004610835565b6103f7565b600354604051908152602001610121565b61013d6101b7366004610899565b610564565b6101c461060e565b60405161012191906108c9565b61014f6101df366004610899565b60016020526000908152604090205460ff1681565b61014f610202366004610899565b60076020526000908152604090205460ff1681565b61010d610225366004610757565b6002602052600090815260409020546001600160a01b031681565b61013d61024e366004610899565b61069c565b6003818154811061026357600080fd5b6000918252602090912001546001600160a01b0316905081565b6102856106da565b60045460ff166102dc5760405162461bcd60e51b815260206004820152601e60248201527f526567697374726174696f6e206973206e6f742079657420636c6f736564000060448201526064015b60405180910390fd5b604051806060016040528060228152602001610b246022913960069061030290826109a3565b507fd99f8c767e5074ed6e4f66f94ea6cf353525e63c5066bcf06490d8566f3a2e066006838360405161033793929190610a63565b60405180910390a15050565b61034b6106da565b6103556000610707565b565b61035f6106da565b60045460ff16156103ab5760405162461bcd60e51b8152602060048201526016602482015275149959da5cdd1c985d1a5bdb881a5cc818db1bdcd95960521b60448201526064016102d3565b6004805460ff191660011790556003546040517f383b6ce38b867405b4f42fa404692e07842868068badd063c9bfeb0e7f263f62916103ed9190815260200190565b60405180910390a1565b60045460ff16156104435760405162461bcd60e51b8152602060048201526016602482015275149959da5cdd1c985d1a5bdb881a5cc818db1bdcd95960521b60448201526064016102d3565b3360009081526001602052604090205460ff16156104a35760405162461bcd60e51b815260206004820152601860248201527f566f74657220616c72656164792072656769737465726564000000000000000060448201526064016102d3565b336000818152600160208181526040808420805460ff1916841790556005805485526002835281852080546001600160a01b031990811688179091556003805495860181559095527fc2575a0e9e593c00f959f8c92f12db2869c3395a3b0502d05e2516446f71f85b90930180549094168517909355905491519182527f6f3bf3fa84e4763a43b3d23f9d79be242d6d5c834941ff4c1111b67469e1150c910160405180910390a26005805490600061055b83610afc565b91905055505050565b61056c6106da565b6001600160a01b0381166105c25760405162461bcd60e51b815260206004820152601c60248201527f43616e6e6f74206772616e7420746f207a65726f20616464726573730000000060448201526064016102d3565b6001600160a01b038116600081815260076020526040808220805460ff19166001179055517f9749a8e49d1b73f37a892e82321de26a854d2c9c03ae0b6a85cb2ed280e637849190a250565b6006805461061b90610918565b80601f016020809104026020016040519081016040528092919081815260200182805461064790610918565b80156106945780601f1061066957610100808354040283529160200191610694565b820191906000526020600020905b81548152906001019060200180831161067757829003601f168201915b505050505081565b6106a46106da565b6001600160a01b0381166106ce57604051631e4fbdf760e01b8152600060048201526024016102d3565b6106d781610707565b50565b6000546001600160a01b031633146103555760405163118cdaa760e01b81523360048201526024016102d3565b600080546001600160a01b038381166001600160a01b0319831681178455604051919092169283917f8be0079c531659141344cd1fd0a4f28419497f9722a3daafe3b4186f6b6457e09190a35050565b60006020828403121561076957600080fd5b5035919050565b6000806040838503121561078357600080fd5b50508035926020909101359150565b634e487b7160e01b600052604160045260246000fd5b600082601f8301126107b957600080fd5b813567ffffffffffffffff808211156107d4576107d4610792565b604051601f8301601f19908116603f011681019082821181831017156107fc576107fc610792565b8160405283815286602085880101111561081557600080fd5b836020870160208301376000602085830101528094505050505092915050565b6000806040838503121561084857600080fd5b823567ffffffffffffffff8082111561086057600080fd5b61086c868387016107a8565b9350602085013591508082111561088257600080fd5b5061088f858286016107a8565b9150509250929050565b6000602082840312156108ab57600080fd5b81356001600160a01b03811681146108c257600080fd5b9392505050565b60006020808352835180602085015260005b818110156108f7578581018301518582016040015282016108db565b506000604082860101526040601f19601f8301168501019250505092915050565b600181811c9082168061092c57607f821691505b60208210810361094c57634e487b7160e01b600052602260045260246000fd5b50919050565b601f82111561099e576000816000526020600020601f850160051c8101602086101561097b5750805b601f850160051c820191505b8181101561099a57828155600101610987565b5050505b505050565b815167ffffffffffffffff8111156109bd576109bd610792565b6109d1816109cb8454610918565b84610952565b602080601f831160018114610a0657600084156109ee5750858301515b600019600386901b1c1916600185901b17855561099a565b600085815260208120601f198616915b82811015610a3557888601518255948401946001909101908401610a16565b5085821015610a535787850151600019600388901b60f8161c191681555b5050505050600190811b01905550565b606081526000808554610a7581610918565b8060608601526080600180841660008114610a975760018114610ab357610ae5565b60ff1985166080890152608084151560051b8901019550610ae5565b8a60005260208060002060005b86811015610adb5781548b8201870152908401908201610ac0565b8a01608001975050505b505050505060208301949094525060400152919050565b600060018201610b1c57634e487b7160e01b600052601160045260246000fd5b506001019056fe516d506c616365686f6c6465725461736b5370656343494431323334353637383930a2646970667358221220ee17ed952014e7f02f24e71527eb85406ee857f9fe4573521570a437b883417964736f6c63430008160033",
  "linkReferences": {},
  "deployedLinkReferences": {}
}