{
  "_format": "hh-sol-artifact-1",
  "contractName": "TallyBase",
  "sourceName": "contracts/plugins/base/TallyBase.sol",
  "abi": [
    {
      "inputs": [
        {
          "internalType": "string[]",
          "name": "_cand",
          "type": "string[]"
        }
      ],
      "stateMutability": "nonpayable",
      "type": "constructor"
    },
    {
      "inputs": [
        {
          "internalType": "address",
          "name": "voter",
          "type": "address"
        }
      ],
      "name": "TallyBase__AlreadyVoted",
      "type": "error"
    },
    {
      "inputs": [
        {
          "internalType": "uint256",
          "name": "candidateId",
          "type": "uint256"
        },
        {
          "internalType": "uint256",
          "name": "candidateCount",
          "type": "uint256"
        }
      ],
      "name": "TallyBase__InvalidCandidateId",
      "type": "error"
    },
    {
      "anonymous": false,
      "inputs": [
        {
          "indexed": true,
          "internalType": "address",
          "name": "voter",
          "type": "address"
        },
        {
          "indexed": true,
          "internalType": "uint256",
          "name": "candidateId",
          "type": "uint256"
        }
      ],
      "name": "VoteCast",
      "type": "event"
    },
    {
      "inputs": [
        {
          "internalType": "uint256",
          "name": "",
          "type": "uint256"
        }
      ],
      "name": "candidates",
      "outputs": [
        {
          "internalType": "string",
          "name": "",
          "type": "string"
        }
      ],
      "stateMutability": "view",
      "type": "function"
    },
    {
      "inputs": [],
      "name": "getCandidateCount",
      "outputs": [
        {
          "internalType": "uint256",
          "name": "",
          "type": "uint256"
        }
      ],
      "stateMutability": "view",
      "type": "function"
    },
    {
      "inputs": [],
      "name": "getResults",
      "outputs": [
        {
          "internalType": "uint256[]",
          "name": "out",
          "type": "uint256[]"
        }
      ],
      "stateMutability": "view",
      "type": "function"
    },
    {
      "inputs": [
        {
          "internalType": "address",
          "name": "",
          "type": "address"
        }
      ],
      "name": "hasVoted",
      "outputs": [
        {
          "internalType": "bool",
          "name": "",
          "type": "bool"
        }
      ],
      "stateMutability": "view",
      "type": "function"
    },
    {
      "inputs": [
        {
          "internalType": "address",
          "name": "voter",
          "type": "address"
        },
        {
          "internalType": "uint256",
          "name": "candidateId",
          "type": "uint256"
        }
      ],
      "name": "tallyVote",
      "outputs": [],
      "stateMutability": "nonpayable",
      "type": "function"
    }
  ],
  "bytecode": "0x60806040523480156200001157600080fd5b506040516200092338038062000923833981016040819052620000349162000171565b80516200004990600090602084019062000051565b505062000413565b8280548282559060005260206000209081019282156200009c579160200282015b828111156200009c57825182906200008b908262000347565b509160200191906001019062000072565b50620000aa929150620000ae565b5090565b80821115620000aa576000620000c58282620000cf565b50600101620000ae565b508054620000dd90620002b6565b6000825580601f10620000ee575050565b601f0160209004906000526020600020908101906200010e919062000111565b50565b5b80821115620000aa576000815560010162000112565b634e487b7160e01b600052604160045260246000fd5b604051601f8201601f191681016001600160401b038111828210171562000169576200016962000128565b604052919050565b600060208083850312156200018557600080fd5b82516001600160401b03808211156200019d57600080fd5b8185019150601f86601f840112620001b457600080fd5b825182811115620001c957620001c962000128565b8060051b620001da8682016200013e565b918252848101860191868101908a841115620001f557600080fd5b87870192505b83831015620002a857825186811115620002155760008081fd5b8701603f81018c13620002285760008081fd5b88810151878111156200023f576200023f62000128565b62000252818801601f19168b016200013e565b81815260408e818486010111156200026a5760008081fd5b60005b838110156200028a578481018201518382018e01528c016200026d565b505060009181018b01919091528352509187019190870190620001fb565b9a9950505050505050505050565b600181811c90821680620002cb57607f821691505b602082108103620002ec57634e487b7160e01b600052602260045260246000fd5b50919050565b601f82111562000342576000816000526020600020601f850160051c810160208610156200031d5750805b601f850160051c820191505b818110156200033e5782815560010162000329565b5050505b505050565b81516001600160401b0381111562000363576200036362000128565b6200037b81620003748454620002b6565b84620002f2565b602080601f831160018114620003b357600084156200039a5750858301515b600019600386901b1c1916600185901b1785556200033e565b600085815260208120601f198616915b82811015620003e457888601518255948401946001909101908401620003c3565b5085821015620004035787850151600019600388901b60f8161c191681555b5050505050600190811b01905550565b61050080620004236000396000f3fe608060405234801561001057600080fd5b50600436106100575760003560e01c806309eef43e1461005c57806330a56347146100945780633477ee2e146100a55780634717f97c146100c55780639bd8020a146100da575b600080fd5b61007f61006a366004610345565b60016020526000908152604090205460ff1681565b60405190151581526020015b60405180910390f35b60005460405190815260200161008b565b6100b86100b3366004610367565b6100ef565b60405161008b9190610380565b6100cd61019b565b60405161008b91906103cf565b6100ed6100e8366004610413565b61022c565b005b600081815481106100ff57600080fd5b90600052602060002001600091509050805461011a9061043d565b80601f01602080910402602001604051908101604052809291908181526020018280546101469061043d565b80156101935780601f1061016857610100808354040283529160200191610193565b820191906000526020600020905b81548152906001019060200180831161017657829003601f168201915b505050505081565b60005460609067ffffffffffffffff8111156101b9576101b9610477565b6040519080825280602002602001820160405280156101e2578160200160208202803683370190505b50905060005b6000548110156102285760008181526002602052604090205482518390839081106102155761021561048d565b60209081029190910101526001016101e8565b5090565b600054811061026557600054604051636f88796160e01b815261025c918391600401918252602082015260400190565b60405180910390fd5b6001600160a01b03821660009081526001602052604090205460ff16156102aa5760405163c794573d60e01b81526001600160a01b038316600482015260240161025c565b6001600160a01b0382166000908152600160208181526040808420805460ff191684179055848452600290915282208054919290916102ea9084906104a3565b909155505060405181906001600160a01b038416907fa36cc2bebb74db33e9f88110a07ef56e1b31b24b4c4f51b54b1664266e29f45b90600090a35050565b80356001600160a01b038116811461034057600080fd5b919050565b60006020828403121561035757600080fd5b61036082610329565b9392505050565b60006020828403121561037957600080fd5b5035919050565b60006020808352835180602085015260005b818110156103ae57858101830151858201604001528201610392565b506000604082860101526040601f19601f8301168501019250505092915050565b6020808252825182820181905260009190848201906040850190845b81811015610407578351835292840192918401916001016103eb565b50909695505050505050565b6000806040838503121561042657600080fd5b61042f83610329565b946020939093013593505050565b600181811c9082168061045157607f821691505b60208210810361047157634e487b7160e01b600052602260045260246000fd5b50919050565b634e487b7160e01b600052604160045260246000fd5b634e487b7160e01b600052603260045260246000fd5b808201808211156104c457634e487b7160e01b600052601160045260246000fd5b9291505056fea264697066735822122049328f8351ebf76cf0c52d842ba79400ee8ab0d83da96e2fb6253fdeb773bf3d64736f6c63430008180033",
  "linkReferences": {},
  "deployedLinkReferences": {}
}