{
  "_format": "hh-sol-artifact-1",
  "contractName": "VotingBase",
  "sourceName": "contracts/plugins/base/VotingBase.sol",
  "abi": [
    {
      "inputs": [
        {
          "internalType": "string[]",
          "name": "_cand",
          "type": "string[]"
        }
      ],
      "stateMutability": "nonpayable",
      "type": "constructor"
    },
    {
      "anonymous": false,
      "inputs": [
        {
          "indexed": true,
          "internalType": "enum VotingBase.Phase",
          "name": "newPhase",
          "type": "uint8"
        }
      ],
      "name": "PhaseSwitched",
      "type": "event"
    },
    {
      "anonymous": false,
      "inputs": [
        {
          "indexed": true,
          "internalType": "address",
          "name": "voter",
          "type": "address"
        },
        {
          "indexed": true,
          "internalType": "uint256",
          "name": "candidateId",
          "type": "uint256"
        }
      ],
      "name": "VoteCast",
      "type": "event"
    },
    {
      "anonymous": false,
      "inputs": [
        {
          "indexed": true,
          "internalType": "address",
          "name": "voter",
          "type": "address"
        }
      ],
      "name": "VoterRegistered",
      "type": "event"
    },
    {
      "inputs": [
        {
          "internalType": "address",
          "name": "voter",
          "type": "address"
        }
      ],
      "name": "addVoter",
      "outputs": [],
      "stateMutability": "nonpayable",
      "type": "function"
    },
    {
      "inputs": [],
      "name": "admin",
      "outputs": [
        {
          "internalType": "address",
          "name": "",
          "type": "address"
        }
      ],
      "stateMutability": "view",
      "type": "function"
    },
    {
      "inputs": [],
      "name": "allResults",
      "outputs": [
        {
          "internalType": "uint256[]",
          "name": "out",
          "type": "uint256[]"
        }
      ],
      "stateMutability": "view",
      "type": "function"
    },
    {
      "inputs": [
        {
          "internalType": "uint256",
          "name": "",
          "type": "uint256"
        }
      ],
      "name": "candidates",
      "outputs": [
        {
          "internalType": "string",
          "name": "",
          "type": "string"
        }
      ],
      "stateMutability": "view",
      "type": "function"
    },
    {
      "inputs": [],
      "name": "endVoting",
      "outputs": [],
      "stateMutability": "nonpayable",
      "type": "function"
    },
    {
      "inputs": [
        {
          "internalType": "address",
          "name": "",
          "type": "address"
        }
      ],
      "name": "hasVoted",
      "outputs": [
        {
          "internalType": "bool",
          "name": "",
          "type": "bool"
        }
      ],
      "stateMutability": "view",
      "type": "function"
    },
    {
      "inputs": [
        {
          "internalType": "address",
          "name": "",
          "type": "address"
        }
      ],
      "name": "isVoter",
      "outputs": [
        {
          "internalType": "bool",
          "name": "",
          "type": "bool"
        }
      ],
      "stateMutability": "view",
      "type": "function"
    },
    {
      "inputs": [],
      "name": "phase",
      "outputs": [
        {
          "internalType": "enum VotingBase.Phase",
          "name": "",
          "type": "uint8"
        }
      ],
      "stateMutability": "view",
      "type": "function"
    },
    {
      "inputs": [
        {
          "internalType": "uint256",
          "name": "id",
          "type": "uint256"
        }
      ],
      "name": "result",
      "outputs": [
        {
          "internalType": "uint256",
          "name": "",
          "type": "uint256"
        }
      ],
      "stateMutability": "view",
      "type": "function"
    },
    {
      "inputs": [],
      "name": "startVoting",
      "outputs": [],
      "stateMutability": "nonpayable",
      "type": "function"
    },
    {
      "inputs": [
        {
          "internalType": "uint256",
          "name": "candidateId",
          "type": "uint256"
        }
      ],
      "name": "vote",
      "outputs": [],
      "stateMutability": "nonpayable",
      "type": "function"
    }
  ],
  "bytecode": "0x60a06040526000805460ff191690553480156200001b57600080fd5b5060405162000e5e38038062000e5e8339810160408190526200003e916200017f565b336080528051620000579060019060208401906200005f565b505062000421565b828054828255906000526020600020908101928215620000aa579160200282015b82811115620000aa578251829062000099908262000355565b509160200191906001019062000080565b50620000b8929150620000bc565b5090565b80821115620000b8576000620000d38282620000dd565b50600101620000bc565b508054620000eb90620002c4565b6000825580601f10620000fc575050565b601f0160209004906000526020600020908101906200011c91906200011f565b50565b5b80821115620000b8576000815560010162000120565b634e487b7160e01b600052604160045260246000fd5b604051601f8201601f191681016001600160401b038111828210171562000177576200017762000136565b604052919050565b600060208083850312156200019357600080fd5b82516001600160401b0380821115620001ab57600080fd5b8185019150601f86601f840112620001c257600080fd5b825182811115620001d757620001d762000136565b8060051b620001e88682016200014c565b918252848101860191868101908a8411156200020357600080fd5b87870192505b83831015620002b657825186811115620002235760008081fd5b8701603f81018c13620002365760008081fd5b88810151878111156200024d576200024d62000136565b62000260818801601f19168b016200014c565b81815260408e81848601011115620002785760008081fd5b60005b8381101562000298578481018201518382018e01528c016200027b565b505060009181018b0191909152835250918701919087019062000209565b9a9950505050505050505050565b600181811c90821680620002d957607f821691505b602082108103620002fa57634e487b7160e01b600052602260045260246000fd5b50919050565b601f82111562000350576000816000526020600020601f850160051c810160208610156200032b5750805b601f850160051c820191505b818110156200034c5782815560010162000337565b5050505b505050565b81516001600160401b0381111562000371576200037162000136565b6200038981620003828454620002c4565b8462000300565b602080601f831160018114620003c15760008415620003a85750858301515b600019600386901b1c1916600185901b1785556200034c565b600085815260208120601f198616915b82811015620003f257888601518255948401946001909101908401620003d1565b5085821015620004115787850151600019600388901b60f8161c191681555b5050505050600190811b01905550565b608051610a0c62000452600039600081816101b60152818161037b0152818161064601526106d90152610a0c6000f3fe608060405234801561001057600080fd5b50600436106100a95760003560e01c8063971e48eb11610071578063971e48eb14610144578063a7771ee314610159578063b1c9fe6e1461017c578063c3403ddf14610196578063f4ab9adf1461019e578063f851a440146101b157600080fd5b80630121b93f146100ae57806309eef43e146100c35780631ec6b60a146100fb5780633477ee2e146101035780633c59405914610123575b600080fd5b6100c16100bc3660046107e9565b6101f0565b005b6100e66100d1366004610802565b60036020526000908152604090205460ff1681565b60405190151581526020015b60405180910390f35b6100c1610370565b6101166101113660046107e9565b610446565b6040516100f29190610832565b6101366101313660046107e9565b6104f2565b6040519081526020016100f2565b61014c610559565b6040516100f29190610881565b6100e6610167366004610802565b60026020526000908152604090205460ff1681565b6000546101899060ff1681565b6040516100f291906108db565b6100c161063b565b6100c16101ac366004610802565b6106ce565b6101d87f000000000000000000000000000000000000000000000000000000000000000081565b6040516001600160a01b0390911681526020016100f2565b60018060005460ff16600281111561020a5761020a6108c5565b146102305760405162461bcd60e51b815260040161022790610903565b60405180910390fd5b3360009081526002602052604090205460ff1661027b5760405162461bcd60e51b81526020600482015260096024820152682727aa2fab27aa22a960b91b6044820152606401610227565b3360009081526003602052604090205460ff16156102c55760405162461bcd60e51b8152602060048201526007602482015266414c524541445960c81b6044820152606401610227565b60015482106102ff5760405162461bcd60e51b815260206004820152600660248201526510905117d25160d21b6044820152606401610227565b336000908152600360209081526040808320805460ff191660019081179091558584526004909252822080549192909161033a908490610926565b9091555050604051829033907fa36cc2bebb74db33e9f88110a07ef56e1b31b24b4c4f51b54b1664266e29f45b90600090a35050565b336001600160a01b037f000000000000000000000000000000000000000000000000000000000000000016146103b85760405162461bcd60e51b81526004016102279061094d565b60008060005460ff1660028111156103d2576103d26108c5565b146103ef5760405162461bcd60e51b815260040161022790610903565b600080546001919060ff191682805b021790555060005460ff16600281111561041a5761041a6108c5565b6040517fc0af27d3716148331c04795ba189cc20c75b9c111bed558d7bf7ee448068f0b190600090a250565b6001818154811061045657600080fd5b90600052602060002001600091509050805461047190610970565b80601f016020809104026020016040519081016040528092919081815260200182805461049d90610970565b80156104ea5780601f106104bf576101008083540402835291602001916104ea565b820191906000526020600020905b8154815290600101906020018083116104cd57829003601f168201915b505050505081565b6000600260005460ff16600281111561050d5761050d6108c5565b146105465760405162461bcd60e51b81526020600482015260096024820152681393d517d15391115160ba1b6044820152606401610227565b5060009081526004602052604090205490565b6060600260005460ff166002811115610574576105746108c5565b146105ad5760405162461bcd60e51b81526020600482015260096024820152681393d517d15391115160ba1b6044820152606401610227565b60015467ffffffffffffffff8111156105c8576105c86109aa565b6040519080825280602002602001820160405280156105f1578160200160208202803683370190505b50905060005b600154811015610637576000818152600460205260409020548251839083908110610624576106246109c0565b60209081029190910101526001016105f7565b5090565b336001600160a01b037f000000000000000000000000000000000000000000000000000000000000000016146106835760405162461bcd60e51b81526004016102279061094d565b60018060005460ff16600281111561069d5761069d6108c5565b146106ba5760405162461bcd60e51b815260040161022790610903565b600080546002919060ff19166001836103fe565b336001600160a01b037f000000000000000000000000000000000000000000000000000000000000000016146107165760405162461bcd60e51b81526004016102279061094d565b60008060005460ff166002811115610730576107306108c5565b1461074d5760405162461bcd60e51b815260040161022790610903565b6001600160a01b03821660009081526002602052604090205460ff161561079c5760405162461bcd60e51b815260206004820152600360248201526204455560ec1b6044820152606401610227565b6001600160a01b038216600081815260026020526040808220805460ff19166001179055517fb6be2187d059cc2a55fe29e0e503b566e1e0f8c8780096e185429350acffd3dd9190a25050565b6000602082840312156107fb57600080fd5b5035919050565b60006020828403121561081457600080fd5b81356001600160a01b038116811461082b57600080fd5b9392505050565b60006020808352835180602085015260005b8181101561086057858101830151858201604001528201610844565b506000604082860101526040601f19601f8301168501019250505092915050565b6020808252825182820181905260009190848201906040850190845b818110156108b95783518352928401929184019160010161089d565b50909695505050505050565b634e487b7160e01b600052602160045260246000fd5b60208101600383106108fd57634e487b7160e01b600052602160045260246000fd5b91905290565b6020808252600990820152684241445f504841534560b81b604082015260600190565b8082018082111561094757634e487b7160e01b600052601160045260246000fd5b92915050565b6020808252600990820152682727aa2fa0a226a4a760b91b604082015260600190565b600181811c9082168061098457607f821691505b6020821081036109a457634e487b7160e01b600052602260045260246000fd5b50919050565b634e487b7160e01b600052604160045260246000fd5b634e487b7160e01b600052603260045260246000fdfea2646970667358221220ab02d9bc499b85cbf1226fb8ce200394e47ed172919e78f6a5e95657e9993fbd64736f6c63430008180033",
  "linkReferences": {},
  "deployedLinkReferences": {}
}