{
  "_format": "hh-sol-artifact-1",
  "contractName": "CountingContract",
  "sourceName": "contracts/CountingContract.sol",
  "abi": [
    {
      "inputs": [],
      "stateMutability": "nonpayable",
      "type": "constructor"
    },
    {
      "inputs": [
        {
          "internalType": "address",
          "name": "owner",
          "type": "address"
        }
      ],
      "name": "OwnableInvalidOwner",
      "type": "error"
    },
    {
      "inputs": [
        {
          "internalType": "address",
          "name": "account",
          "type": "address"
        }
      ],
      "name": "OwnableUnauthorizedAccount",
      "type": "error"
    },
    {
      "anonymous": false,
      "inputs": [
        {
          "indexed": true,
          "internalType": "address",
          "name": "previousOwner",
          "type": "address"
        },
        {
          "indexed": true,
          "internalType": "address",
          "name": "newOwner",
          "type": "address"
        }
      ],
      "name": "OwnershipTransferred",
      "type": "event"
    },
    {
      "anonymous": false,
      "inputs": [
        {
          "indexed": false,
          "internalType": "uint256",
          "name": "candidateId",
          "type": "uint256"
        },
        {
          "indexed": false,
          "internalType": "uint256",
          "name": "votes",
          "type": "uint256"
        }
      ],
      "name": "VoteCounted",
      "type": "event"
    },
    {
      "inputs": [
        {
          "internalType": "uint256",
          "name": "",
          "type": "uint256"
        }
      ],
      "name": "candidates",
      "outputs": [
        {
          "internalType": "string",
          "name": "name",
          "type": "string"
        },
        {
          "internalType": "uint256",
          "name": "voteCount",
          "type": "uint256"
        }
      ],
      "stateMutability": "view",
      "type": "function"
    },
    {
      "inputs": [],
      "name": "getCandidates",
      "outputs": [
        {
          "components": [
            {
              "internalType": "string",
              "name": "name",
              "type": "string"
            },
            {
              "internalType": "uint256",
              "name": "voteCount",
              "type": "uint256"
            }
          ],
          "internalType": "struct CountingContract.Candidate[]",
          "name": "",
          "type": "tuple[]"
        }
      ],
      "stateMutability": "view",
      "type": "function"
    },
    {
      "inputs": [],
      "name": "getTotalVotes",
      "outputs": [
        {
          "internalType": "uint256",
          "name": "",
          "type": "uint256"
        }
      ],
      "stateMutability": "view",
      "type": "function"
    },
    {
      "inputs": [],
      "name": "owner",
      "outputs": [
        {
          "internalType": "address",
          "name": "",
          "type": "address"
        }
      ],
      "stateMutability": "view",
      "type": "function"
    },
    {
      "inputs": [],
      "name": "renounceOwnership",
      "outputs": [],
      "stateMutability": "nonpayable",
      "type": "function"
    },
    {
      "inputs": [
        {
          "internalType": "uint256",
          "name": "candidateId",
          "type": "uint256"
        },
        {
          "internalType": "uint256",
          "name": "votes",
          "type": "uint256"
        }
      ],
      "name": "submitVotes",
      "outputs": [],
      "stateMutability": "nonpayable",
      "type": "function"
    },
    {
      "inputs": [
        {
          "internalType": "address",
          "name": "newOwner",
          "type": "address"
        }
      ],
      "name": "transferOwnership",
      "outputs": [],
      "stateMutability": "nonpayable",
      "type": "function"
    }
  ],
  "bytecode": "0x608060405234801561001057600080fd5b50610cc3806100206000396000f3fe608060405234801561001057600080fd5b50600436106100625760003560e01c806304e371461461006757806378b23efc1461009757806379a12759146100b3578063a6545aa5146100e3578063e67b234314610101578063fb76c1131461011d575b600080fd5b610081600480360381019061007c91906104f1565b61013b565b60405161008e9190610537565b60405180910390f35b6100b160048036038101906100ac9190610698565b610183565b005b6100cd60048036038101906100c891906104f1565b6101e0565b6040516100da9190610537565b60405180910390f35b6100eb6101f8565b6040516100f8919061078f565b60405180910390f35b61011b600480360381019061011691906107dd565b610286565b005b6101256103e6565b604051610132919061078f565b60405180910390f35b60008060008373ffffffffffffffffffffffffffffffffffffffff1673ffffffffffffffffffffffffffffffffffffffff168152602001908152602001600020549050919050565b81600190816101929190610a4f565b5080600290816101a29190610a4f565b507f4828df71818c7d1ccc17dfb2785d0b90baf4a253d4a42ccd2ad2bcd31397d4c182826040516101d4929190610b21565b60405180910390a15050565b60006020528060005260406000206000915090505481565b6002805461020590610868565b80601f016020809104026020016040519081016040528092919081815260200182805461023190610868565b801561027e5780601f106102535761010080835404028352916020019161027e565b820191906000526020600020905b81548152906001019060200180831161026157829003601f168201915b505050505081565b61028f81610474565b6102ce576040517f08c379a00000000000000000000000000000000000000000000000000000000081526004016102c590610bdb565b60405180910390fd5b6000801b6000803373ffffffffffffffffffffffffffffffffffffffff1673ffffffffffffffffffffffffffffffffffffffff1681526020019081526020016000205414610351576040517f08c379a000000000000000000000000000000000000000000000000000000000815260040161034890610c6d565b60405180910390fd5b816000803373ffffffffffffffffffffffffffffffffffffffff1673ffffffffffffffffffffffffffffffffffffffff168152602001908152602001600020819055503373ffffffffffffffffffffffffffffffffffffffff167f8fe82f26861a128b86619768301e0fa25aaf21e164853ad0eb748695653a60c5836040516103da9190610537565b60405180910390a25050565b600180546103f390610868565b80601f016020809104026020016040519081016040528092919081815260200182805461041f90610868565b801561046c5780601f106104415761010080835404028352916020019161046c565b820191906000526020600020905b81548152906001019060200180831161044f57829003601f168201915b505050505081565b600060019050919050565b6000604051905090565b600080fd5b600080fd5b600073ffffffffffffffffffffffffffffffffffffffff82169050919050565b60006104be82610493565b9050919050565b6104ce816104b3565b81146104d957600080fd5b50565b6000813590506104eb816104c5565b92915050565b60006020828403121561050757610506610489565b5b6000610515848285016104dc565b91505092915050565b6000819050919050565b6105318161051e565b82525050565b600060208201905061054c6000830184610528565b92915050565b600080fd5b600080fd5b6000601f19601f8301169050919050565b7f4e487b7100000000000000000000000000000000000000000000000000000000600052604160045260246000fd5b6105a58261055c565b810181811067ffffffffffffffff821117156105c4576105c361056d565b5b80604052505050565b60006105d761047f565b90506105e3828261059c565b919050565b600067ffffffffffffffff8211156106035761060261056d565b5b61060c8261055c565b9050602081019050919050565b82818337600083830152505050565b600061063b610636846105e8565b6105cd565b90508281526020810184848401111561065757610656610557565b5b610662848285610619565b509392505050565b600082601f83011261067f5761067e610552565b5b813561068f848260208601610628565b91505092915050565b600080604083850312156106af576106ae610489565b5b600083013567ffffffffffffffff8111156106cd576106cc61048e565b5b6106d98582860161066a565b925050602083013567ffffffffffffffff8111156106fa576106f961048e565b5b6107068582860161066a565b9150509250929050565b600081519050919050565b600082825260208201905092915050565b60005b8381101561074a57808201518184015260208101905061072f565b60008484015250505050565b600061076182610710565b61076b818561071b565b935061077b81856020860161072c565b6107848161055c565b840191505092915050565b600060208201905081810360008301526107a98184610756565b905092915050565b6107ba8161051e565b81146107c557600080fd5b50565b6000813590506107d7816107b1565b92915050565b600080604083850312156107f4576107f3610489565b5b6000610802858286016107c8565b925050602083013567ffffffffffffffff8111156108235761082261048e565b5b61082f8582860161066a565b9150509250929050565b7f4e487b7100000000000000000000000000000000000000000000000000000000600052602260045260246000fd5b6000600282049050600182168061088057607f821691505b60208210810361089357610892610839565b5b50919050565b60008190508160005260206000209050919050565b60006020601f8301049050919050565b600082821b905092915050565b6000600883026108fb7fffffffffffffffffffffffffffffffffffffffffffffffffffffffffffffffff826108be565b61090586836108be565b95508019841693508086168417925050509392505050565b6000819050919050565b6000819050919050565b600061094c6109476109428461091d565b610927565b61091d565b9050919050565b6000819050919050565b61096683610931565b61097a61097282610953565b8484546108cb565b825550505050565b600090565b61098f610982565b61099a81848461095d565b505050565b5b818110156109be576109b3600082610987565b6001810190506109a0565b5050565b601f821115610a03576109d481610899565b6109dd846108ae565b810160208510156109ec578190505b610a006109f8856108ae565b83018261099f565b50505b505050565b600082821c905092915050565b6000610a2660001984600802610a08565b1980831691505092915050565b6000610a3f8383610a15565b9150826002028217905092915050565b610a5882610710565b67ffffffffffffffff811115610a7157610a7061056d565b5b610a7b8254610868565b610a868282856109c2565b600060209050601f831160018114610ab95760008415610aa7578287015190505b610ab18582610a33565b865550610b19565b601f198416610ac786610899565b60005b82811015610aef57848901518255600182019150602085019450602081019050610aca565b86831015610b0c5784890151610b08601f891682610a15565b8355505b6001600288020188555050505b505050505050565b60006040820190508181036000830152610b3b8185610756565b90508181036020830152610b4f8184610756565b90509392505050565b600082825260208201905092915050565b7f566552616e67652070726f6f6620766572696669636174696f6e206661696c6560008201527f6400000000000000000000000000000000000000000000000000000000000000602082015250565b6000610bc5602183610b58565b9150610bd082610b69565b604082019050919050565b60006020820190508181036000830152610bf481610bb8565b9050919050565b7f42616c6c6f7420616c7265616479207375626d697474656420666f722074686960008201527f7320616464726573730000000000000000000000000000000000000000000000602082015250565b6000610c57602983610b58565b9150610c6282610bfb565b604082019050919050565b60006020820190508181036000830152610c8681610c4a565b905091905056fea264697066735822122057e256f99a0e7a9ceb5d374c8fed85f49f126758e35219f53399c5959007fecc64736f6c63430008180033",
  "deployedLinkReferences": {}
}